{
	"data": {
		"bytecode": {
			"linkReferences": {},
			"object": "608060405234801561000f575f80fd5b50335f73ffffffffffffffffffffffffffffffffffffffff168173ffffffffffffffffffffffffffffffffffffffff1603610081575f6040517f1e4fbdf7000000000000000000000000000000000000000000000000000000008152600401610078919061027c565b60405180910390fd5b610090816100ab60201b60201c565b50600180819055506100a661016c60201b60201c565b610295565b5f805f9054906101000a900473ffffffffffffffffffffffffffffffffffffffff169050815f806101000a81548173ffffffffffffffffffffffffffffffffffffffff021916908373ffffffffffffffffffffffffffffffffffffffff1602179055508173ffffffffffffffffffffffffffffffffffffffff168173ffffffffffffffffffffffffffffffffffffffff167f8be0079c531659141344cd1fd0a4f28419497f9722a3daafe3b4186f6b6457e060405160405180910390a35050565b61017a6101da60201b60201c565b60015f60146101000a81548160ff0219169083151502179055507f62e78cea01bee320cd4e420270b5ea74000d11b0c9f74754ebdbfc544b05a2586101c361022160201b60201c565b6040516101d0919061027c565b60405180910390a1565b6101e861022860201b60201c565b1561021f576040517fd93c066500000000000000000000000000000000000000000000000000000000815260040160405180910390fd5b565b5f33905090565b5f8060149054906101000a900460ff16905090565b5f73ffffffffffffffffffffffffffffffffffffffff82169050919050565b5f6102668261023d565b9050919050565b6102768161025c565b82525050565b5f60208201905061028f5f83018461026d565b92915050565b612405806102a25f395ff3fe608060405260043610610122575f3560e01c80635e1b4d991161009f578063da70920411610063578063da709204146103dd578063e44df1611461041b578063f2fde38b14610445578063f867d46b1461046d578063ff18bf0b146104a957610177565b80635e1b4d991461031e578063715018a61461035f5780638456cb59146103755780638da5cb5b1461038b578063945d1a5c146103b557610177565b80633f4ba83a116100e65780633f4ba83a146102625780635312ea8e1461027857806358b24f1e146102a0578063591c613c146102ca5780635c975abb146102f457610177565b80630359fea91461017b5780632e1a7d4d146101a55780632f57ee41146101cd57806331d430b7146101e95780633a0d28971461022657610177565b36610177573373ffffffffffffffffffffffffffffffffffffffff167fd53214ca07be5520e229c395f05a3e5c0697ec6279184ffbe2758d304fd322cc3460405161016d9190611b67565b60405180910390a2005b5f80fd5b348015610186575f80fd5b5061018f6104b3565b60405161019c9190611b67565b60405180910390f35b3480156101b0575f80fd5b506101cb60048036038101906101c69190611bae565b6104d6565b005b6101e760048036038101906101e29190611c10565b610786565b005b3480156101f4575f80fd5b5061020f600480360381019061020a9190611c10565b610b53565b60405161021d929190611c69565b60405180910390f35b348015610231575f80fd5b5061024c60048036038101906102479190611cea565b610b67565b6040516102599190611b67565b60405180910390f35b34801561026d575f80fd5b50610276610d38565b005b348015610283575f80fd5b5061029e60048036038101906102999190611bae565b610d4a565b005b3480156102ab575f80fd5b506102b4610fa7565b6040516102c19190611b67565b60405180910390f35b3480156102d5575f80fd5b506102de610fad565b6040516102eb9190611b67565b60405180910390f35b3480156102ff575f80fd5b50610308610fb5565b6040516103159190611d42565b60405180910390f35b348015610329575f80fd5b50610344600480360381019061033f9190611cea565b610fca565b60405161035696959493929190611d85565b60405180910390f35b34801561036a575f80fd5b5061037361108e565b005b348015610380575f80fd5b506103896110a1565b005b348015610396575f80fd5b5061039f6110b3565b6040516103ac9190611df3565b60405180910390f35b3480156103c0575f80fd5b506103db60048036038101906103d69190611e47565b6110da565b005b3480156103e8575f80fd5b5061040360048036038101906103fe9190611cea565b611252565b60405161041293929190611e85565b60405180910390f35b348015610426575f80fd5b5061042f611433565b60405161043c9190611b67565b60405180910390f35b348015610450575f80fd5b5061046b60048036038101906104669190611eba565b611439565b005b348015610478575f80fd5b50610493600480360381019061048e9190611eba565b6114bd565b6040516104a09190612042565b60405180910390f35b6104b1611673565b005b5f8047905060035481116104ca575f9150506104d3565b60035481039150505b90565b6104de611704565b5f6104e9338361174a565b905080600101600c9054906101000a900460ff1615610534576040517f6507689f00000000000000000000000000000000000000000000000000000000815260040160405180910390fd5b8060010160059054906101000a900464ffffffffff1664ffffffffff1642101561058a576040517f111c440900000000000000000000000000000000000000000000000000000000815260040160405180910390fd5b5f815f015f9054906101000a90046fffffffffffffffffffffffffffffffff166fffffffffffffffffffffffffffffffff1690505f825f0160109054906101000a90046fffffffffffffffffffffffffffffffff166fffffffffffffffffffffffffffffffff169050600183600101600c6101000a81548160ff0219169083151502179055508160035f82825403925050819055508060045f8282540392505081905550808261063a919061208f565b471015610673576040517fadc2dbfe00000000000000000000000000000000000000000000000000000000815260040160405180910390fd5b5f3373ffffffffffffffffffffffffffffffffffffffff168284610697919061208f565b6040516106a3906120ef565b5f6040518083038185875af1925050503d805f81146106dd576040519150601f19603f3d011682016040523d82523d5f602084013e6106e2565b606091505b5050905080610726576040517f08c379a000000000000000000000000000000000000000000000000000000000815260040161071d9061215d565b60405180910390fd5b843373ffffffffffffffffffffffffffffffffffffffff167f75e161b3e824b114fc1a33274bd7091918dd4e639cede50b78b15a4eea956a21858560405161076f92919061217b565b60405180910390a350505050610783611827565b50565b61078e611704565b610796611830565b5f34036107cf576040517fcbca5aa200000000000000000000000000000000000000000000000000000000815260040160405180910390fd5b5f806107da83611871565b915091505f3490505f6127108361ffff16836107f691906121a2565b6108009190612210565b90505f824761080f9190612240565b90505f6003548211610821575f610830565b6003548261082f9190612240565b5b90505f83600454610841919061208f565b90508082101561088a5781816040517fb54281cd00000000000000000000000000000000000000000000000000000000815260040161088192919061217b565b60405180910390fd5b8460035f82825401925050819055508360045f82825401925050819055505f4290505f88826108b99190612273565b90505f6040518060c00160405280896fffffffffffffffffffffffffffffffff168152602001886fffffffffffffffffffffffffffffffff1681526020018464ffffffffff1681526020018364ffffffffff1681526020018c61ffff1681526020015f1515815250905060025f3373ffffffffffffffffffffffffffffffffffffffff1673ffffffffffffffffffffffffffffffffffffffff1681526020019081526020015f2081908060018154018082558091505060019003905f5260205f2090600202015f909190919091505f820151815f015f6101000a8154816fffffffffffffffffffffffffffffffff02191690836fffffffffffffffffffffffffffffffff1602179055506020820151815f0160106101000a8154816fffffffffffffffffffffffffffffffff02191690836fffffffffffffffffffffffffffffffff1602179055506040820151816001015f6101000a81548164ffffffffff021916908364ffffffffff16021790555060608201518160010160056101000a81548164ffffffffff021916908364ffffffffff160217905550608082015181600101600a6101000a81548161ffff021916908361ffff16021790555060a082015181600101600c6101000a81548160ff02191690831515021790555050505f600160025f3373ffffffffffffffffffffffffffffffffffffffff1673ffffffffffffffffffffffffffffffffffffffff1681526020019081526020015f2080549050610ae59190612240565b9050808c61ffff163373ffffffffffffffffffffffffffffffffffffffff167f60757fd06465d62dc907f89d9de29ca316c005a36d20c14bde039b5f09984bf18c87604051610b359291906122ab565b60405180910390a45050505050505050505050610b50611827565b50565b5f80610b5e83611871565b91509150915091565b5f8060025f8573ffffffffffffffffffffffffffffffffffffffff1673ffffffffffffffffffffffffffffffffffffffff1681526020019081526020015f208381548110610bb857610bb76122d2565b5b905f5260205f2090600202016040518060c00160405290815f82015f9054906101000a90046fffffffffffffffffffffffffffffffff166fffffffffffffffffffffffffffffffff166fffffffffffffffffffffffffffffffff1681526020015f820160109054906101000a90046fffffffffffffffffffffffffffffffff166fffffffffffffffffffffffffffffffff166fffffffffffffffffffffffffffffffff168152602001600182015f9054906101000a900464ffffffffff1664ffffffffff1664ffffffffff1681526020016001820160059054906101000a900464ffffffffff1664ffffffffff1664ffffffffff16815260200160018201600a9054906101000a900461ffff1661ffff1661ffff16815260200160018201600c9054906101000a900460ff1615151515815250509050806060015164ffffffffff1642101580610d0957508060a001515b15610d17575f915050610d32565b42816060015164ffffffffff16610d2e9190612240565b9150505b92915050565b610d406118fd565b610d48611984565b565b610d52611704565b5f610d5d338361174a565b905080600101600c9054906101000a900460ff1615610da8576040517f6507689f00000000000000000000000000000000000000000000000000000000815260040160405180910390fd5b8060010160059054906101000a900464ffffffffff1664ffffffffff164210610dfd576040517fb453c22000000000000000000000000000000000000000000000000000000000815260040160405180910390fd5b5f815f015f9054906101000a90046fffffffffffffffffffffffffffffffff166fffffffffffffffffffffffffffffffff1690505f825f0160109054906101000a90046fffffffffffffffffffffffffffffffff166fffffffffffffffffffffffffffffffff169050600183600101600c6101000a81548160ff0219169083151502179055508160035f82825403925050819055508060045f82825403925050819055505f3373ffffffffffffffffffffffffffffffffffffffff1683604051610ec6906120ef565b5f6040518083038185875af1925050503d805f8114610f00576040519150601f19603f3d011682016040523d82523d5f602084013e610f05565b606091505b5050905080610f49576040517f08c379a0000000000000000000000000000000000000000000000000000000008152600401610f4090612349565b60405180910390fd5b843373ffffffffffffffffffffffffffffffffffffffff167fb47853100b79d8afa66237bdb4f7f09d96628ee23aa8aac8a8c21a901c67ddb285604051610f909190611b67565b60405180910390a350505050610fa4611827565b50565b60035481565b5f6003905090565b5f8060149054906101000a900460ff16905090565b6002602052815f5260405f208181548110610fe3575f80fd5b905f5260205f2090600202015f9150915050805f015f9054906101000a90046fffffffffffffffffffffffffffffffff1690805f0160109054906101000a90046fffffffffffffffffffffffffffffffff1690806001015f9054906101000a900464ffffffffff16908060010160059054906101000a900464ffffffffff169080600101600a9054906101000a900461ffff169080600101600c9054906101000a900460ff16905086565b6110966118fd565b61109f5f6119e5565b565b6110a96118fd565b6110b1611aa6565b565b5f805f9054906101000a900473ffffffffffffffffffffffffffffffffffffffff16905090565b6110e26118fd565b6110ea611704565b5f73ffffffffffffffffffffffffffffffffffffffff168273ffffffffffffffffffffffffffffffffffffffff160361114f576040517f18c7c3da00000000000000000000000000000000000000000000000000000000815260040160405180910390fd5b5f8273ffffffffffffffffffffffffffffffffffffffff1682604051611174906120ef565b5f6040518083038185875af1925050503d805f81146111ae576040519150601f19603f3d011682016040523d82523d5f602084013e6111b3565b606091505b50509050806111f7576040517f08c379a00000000000000000000000000000000000000000000000000000000081526004016111ee906123b1565b60405180910390fd5b8273ffffffffffffffffffffffffffffffffffffffff167fba443e8671971c36cdeb74f87321041daff421230cbc5e36cb835269ed1d8b7e8360405161123d9190611b67565b60405180910390a25061124e611827565b5050565b5f805f8060025f8773ffffffffffffffffffffffffffffffffffffffff1673ffffffffffffffffffffffffffffffffffffffff1681526020019081526020015f2085815481106112a5576112a46122d2565b5b905f5260205f2090600202016040518060c00160405290815f82015f9054906101000a90046fffffffffffffffffffffffffffffffff166fffffffffffffffffffffffffffffffff166fffffffffffffffffffffffffffffffff1681526020015f820160109054906101000a90046fffffffffffffffffffffffffffffffff166fffffffffffffffffffffffffffffffff166fffffffffffffffffffffffffffffffff168152602001600182015f9054906101000a900464ffffffffff1664ffffffffff1664ffffffffff1681526020016001820160059054906101000a900464ffffffffff1664ffffffffff1664ffffffffff16815260200160018201600a9054906101000a900461ffff1661ffff1661ffff16815260200160018201600c9054906101000a900460ff1615151515815250509050805f01516fffffffffffffffffffffffffffffffff16935080602001516fffffffffffffffffffffffffffffffff169250806060015164ffffffffff16421015801561142957508060a00151155b9150509250925092565b60045481565b6114416118fd565b5f73ffffffffffffffffffffffffffffffffffffffff168173ffffffffffffffffffffffffffffffffffffffff16036114b1575f6040517f1e4fbdf70000000000000000000000000000000000000000000000000000000081526004016114a89190611df3565b60405180910390fd5b6114ba816119e5565b50565b606060025f8373ffffffffffffffffffffffffffffffffffffffff1673ffffffffffffffffffffffffffffffffffffffff1681526020019081526020015f20805480602002602001604051908101604052809291908181526020015f905b82821015611668578382905f5260205f2090600202016040518060c00160405290815f82015f9054906101000a90046fffffffffffffffffffffffffffffffff166fffffffffffffffffffffffffffffffff166fffffffffffffffffffffffffffffffff1681526020015f820160109054906101000a90046fffffffffffffffffffffffffffffffff166fffffffffffffffffffffffffffffffff166fffffffffffffffffffffffffffffffff168152602001600182015f9054906101000a900464ffffffffff1664ffffffffff1664ffffffffff1681526020016001820160059054906101000a900464ffffffffff1664ffffffffff1664ffffffffff16815260200160018201600a9054906101000a900461ffff1661ffff1661ffff16815260200160018201600c9054906101000a900460ff1615151515815250508152602001906001019061151b565b505050509050919050565b61167b6118fd565b5f34036116b4576040517ff2365b5b00000000000000000000000000000000000000000000000000000000815260040160405180910390fd5b3373ffffffffffffffffffffffffffffffffffffffff167fd53214ca07be5520e229c395f05a3e5c0697ec6279184ffbe2758d304fd322cc346040516116fa9190611b67565b60405180910390a2565b600260015403611740576040517f3ee5aeb500000000000000000000000000000000000000000000000000000000815260040160405180910390fd5b6002600181905550565b5f60025f8473ffffffffffffffffffffffffffffffffffffffff1673ffffffffffffffffffffffffffffffffffffffff1681526020019081526020015f208054905082106117c4576040517fcd4c881400000000000000000000000000000000000000000000000000000000815260040160405180910390fd5b60025f8473ffffffffffffffffffffffffffffffffffffffff1673ffffffffffffffffffffffffffffffffffffffff1681526020019081526020015f208281548110611813576118126122d2565b5b905f5260205f209060020201905092915050565b60018081905550565b611838610fb5565b1561186f576040517fd93c066500000000000000000000000000000000000000000000000000000000815260040160405180910390fd5b565b5f805f8361ffff160361188e57620151806107d0915091506118f8565b60018361ffff16036118aa576202a300611388915091506118f8565b60028361ffff16036118c6576203f480612710915091506118f8565b6040517f2171b80b00000000000000000000000000000000000000000000000000000000815260040160405180910390fd5b915091565b611905611b08565b73ffffffffffffffffffffffffffffffffffffffff166119236110b3565b73ffffffffffffffffffffffffffffffffffffffff161461198257611946611b08565b6040517f118cdaa70000000000000000000000000000000000000000000000000000000081526004016119799190611df3565b60405180910390fd5b565b61198c611b0f565b5f8060146101000a81548160ff0219169083151502179055507f5db9ee0a495bf2e6ff9c91a7834c1ba4fdd244a5e8aa4e537bd38aeae4b073aa6119ce611b08565b6040516119db9190611df3565b60405180910390a1565b5f805f9054906101000a900473ffffffffffffffffffffffffffffffffffffffff169050815f806101000a81548173ffffffffffffffffffffffffffffffffffffffff021916908373ffffffffffffffffffffffffffffffffffffffff1602179055508173ffffffffffffffffffffffffffffffffffffffff168173ffffffffffffffffffffffffffffffffffffffff167f8be0079c531659141344cd1fd0a4f28419497f9722a3daafe3b4186f6b6457e060405160405180910390a35050565b611aae611830565b60015f60146101000a81548160ff0219169083151502179055507f62e78cea01bee320cd4e420270b5ea74000d11b0c9f74754ebdbfc544b05a258611af1611b08565b604051611afe9190611df3565b60405180910390a1565b5f33905090565b611b17610fb5565b611b4d576040517f8dfc202b00000000000000000000000000000000000000000000000000000000815260040160405180910390fd5b565b5f819050919050565b611b6181611b4f565b82525050565b5f602082019050611b7a5f830184611b58565b92915050565b5f80fd5b611b8d81611b4f565b8114611b97575f80fd5b50565b5f81359050611ba881611b84565b92915050565b5f60208284031215611bc357611bc2611b80565b5b5f611bd084828501611b9a565b91505092915050565b5f61ffff82169050919050565b611bef81611bd9565b8114611bf9575f80fd5b50565b5f81359050611c0a81611be6565b92915050565b5f60208284031215611c2557611c24611b80565b5b5f611c3284828501611bfc565b91505092915050565b5f64ffffffffff82169050919050565b611c5481611c3b565b82525050565b611c6381611bd9565b82525050565b5f604082019050611c7c5f830185611c4b565b611c896020830184611c5a565b9392505050565b5f73ffffffffffffffffffffffffffffffffffffffff82169050919050565b5f611cb982611c90565b9050919050565b611cc981611caf565b8114611cd3575f80fd5b50565b5f81359050611ce481611cc0565b92915050565b5f8060408385031215611d0057611cff611b80565b5b5f611d0d85828601611cd6565b9250506020611d1e85828601611b9a565b9150509250929050565b5f8115159050919050565b611d3c81611d28565b82525050565b5f602082019050611d555f830184611d33565b92915050565b5f6fffffffffffffffffffffffffffffffff82169050919050565b611d7f81611d5b565b82525050565b5f60c082019050611d985f830189611d76565b611da56020830188611d76565b611db26040830187611c4b565b611dbf6060830186611c4b565b611dcc6080830185611c5a565b611dd960a0830184611d33565b979650505050505050565b611ded81611caf565b82525050565b5f602082019050611e065f830184611de4565b92915050565b5f611e1682611c90565b9050919050565b611e2681611e0c565b8114611e30575f80fd5b50565b5f81359050611e4181611e1d565b92915050565b5f8060408385031215611e5d57611e5c611b80565b5b5f611e6a85828601611e33565b9250506020611e7b85828601611b9a565b9150509250929050565b5f606082019050611e985f830186611b58565b611ea56020830185611b58565b611eb26040830184611d33565b949350505050565b5f60208284031215611ecf57611ece611b80565b5b5f611edc84828501611cd6565b91505092915050565b5f81519050919050565b5f82825260208201905092915050565b5f819050602082019050919050565b611f1781611d5b565b82525050565b611f2681611c3b565b82525050565b611f3581611bd9565b82525050565b611f4481611d28565b82525050565b60c082015f820151611f5e5f850182611f0e565b506020820151611f716020850182611f0e565b506040820151611f846040850182611f1d565b506060820151611f976060850182611f1d565b506080820151611faa6080850182611f2c565b5060a0820151611fbd60a0850182611f3b565b50505050565b5f611fce8383611f4a565b60c08301905092915050565b5f602082019050919050565b5f611ff082611ee5565b611ffa8185611eef565b935061200583611eff565b805f5b8381101561203557815161201c8882611fc3565b975061202783611fda565b925050600181019050612008565b5085935050505092915050565b5f6020820190508181035f83015261205a8184611fe6565b905092915050565b7f4e487b71000000000000000000000000000000000000000000000000000000005f52601160045260245ffd5b5f61209982611b4f565b91506120a483611b4f565b92508282019050808211156120bc576120bb612062565b5b92915050565b5f81905092915050565b50565b5f6120da5f836120c2565b91506120e5826120cc565b5f82019050919050565b5f6120f9826120cf565b9150819050919050565b5f82825260208201905092915050565b7f7061796f7574206661696c6564000000000000000000000000000000000000005f82015250565b5f612147600d83612103565b915061215282612113565b602082019050919050565b5f6020820190508181035f8301526121748161213b565b9050919050565b5f60408201905061218e5f830185611b58565b61219b6020830184611b58565b9392505050565b5f6121ac82611b4f565b91506121b783611b4f565b92508282026121c581611b4f565b915082820484148315176121dc576121db612062565b5b5092915050565b7f4e487b71000000000000000000000000000000000000000000000000000000005f52601260045260245ffd5b5f61221a82611b4f565b915061222583611b4f565b925082612235576122346121e3565b5b828204905092915050565b5f61224a82611b4f565b915061225583611b4f565b925082820390508181111561226d5761226c612062565b5b92915050565b5f61227d82611c3b565b915061228883611c3b565b9250828201905064ffffffffff8111156122a5576122a4612062565b5b92915050565b5f6040820190506122be5f830185611b58565b6122cb6020830184611c4b565b9392505050565b7f4e487b71000000000000000000000000000000000000000000000000000000005f52603260045260245ffd5b7f726566756e64206661696c6564000000000000000000000000000000000000005f82015250565b5f612333600d83612103565b915061233e826122ff565b602082019050919050565b5f6020820190508181035f83015261236081612327565b9050919050565b7f7472616e73666572206661696c656400000000000000000000000000000000005f82015250565b5f61239b600f83612103565b91506123a682612367565b602082019050919050565b5f6020820190508181035f8301526123c88161238f565b905091905056fea264697066735822122072eac18b6bfaf0efc3570be6111192f3622e11438bdf84588e904091ec2b894864736f6c634300081a0033",
			"opcodes": "PUSH1 0x80 PUSH1 0x40 MSTORE CALLVALUE DUP1 ISZERO PUSH2 0xF JUMPI PUSH0 DUP1 REVERT JUMPDEST POP CALLER PUSH0 PUSH20 0xFFFFFFFFFFFFFFFFFFFFFFFFFFFFFFFFFFFFFFFF AND DUP2 PUSH20 0xFFFFFFFFFFFFFFFFFFFFFFFFFFFFFFFFFFFFFFFF AND SUB PUSH2 0x81 JUMPI PUSH0 PUSH1 0x40 MLOAD PUSH32 0x1E4FBDF700000000000000000000000000000000000000000000000000000000 DUP2 MSTORE PUSH1 0x4 ADD PUSH2 0x78 SWAP2 SWAP1 PUSH2 0x27C JUMP JUMPDEST PUSH1 0x40 MLOAD DUP1 SWAP2 SUB SWAP1 REVERT JUMPDEST PUSH2 0x90 DUP2 PUSH2 0xAB PUSH1 0x20 SHL PUSH1 0x20 SHR JUMP JUMPDEST POP PUSH1 0x1 DUP1 DUP2 SWAP1 SSTORE POP PUSH2 0xA6 PUSH2 0x16C PUSH1 0x20 SHL PUSH1 0x20 SHR JUMP JUMPDEST PUSH2 0x295 JUMP JUMPDEST PUSH0 DUP1 PUSH0 SWAP1 SLOAD SWAP1 PUSH2 0x100 EXP SWAP1 DIV PUSH20 0xFFFFFFFFFFFFFFFFFFFFFFFFFFFFFFFFFFFFFFFF AND SWAP1 POP DUP2 PUSH0 DUP1 PUSH2 0x100 EXP DUP2 SLOAD DUP2 PUSH20 0xFFFFFFFFFFFFFFFFFFFFFFFFFFFFFFFFFFFFFFFF MUL NOT AND SWAP1 DUP4 PUSH20 0xFFFFFFFFFFFFFFFFFFFFFFFFFFFFFFFFFFFFFFFF AND MUL OR SWAP1 SSTORE POP DUP2 PUSH20 0xFFFFFFFFFFFFFFFFFFFFFFFFFFFFFFFFFFFFFFFF AND DUP2 PUSH20 0xFFFFFFFFFFFFFFFFFFFFFFFFFFFFFFFFFFFFFFFF AND PUSH32 0x8BE0079C531659141344CD1FD0A4F28419497F9722A3DAAFE3B4186F6B6457E0 PUSH1 0x40 MLOAD PUSH1 0x40 MLOAD DUP1 SWAP2 SUB SWAP1 LOG3 POP POP JUMP JUMPDEST PUSH2 0x17A PUSH2 0x1DA PUSH1 0x20 SHL PUSH1 0x20 SHR JUMP JUMPDEST PUSH1 0x1 PUSH0 PUSH1 0x14 PUSH2 0x100 EXP DUP2 SLOAD DUP2 PUSH1 0xFF MUL NOT AND SWAP1 DUP4 ISZERO ISZERO MUL OR SWAP1 SSTORE POP PUSH32 0x62E78CEA01BEE320CD4E420270B5EA74000D11B0C9F74754EBDBFC544B05A258 PUSH2 0x1C3 PUSH2 0x221 PUSH1 0x20 SHL PUSH1 0x20 SHR JUMP JUMPDEST PUSH1 0x40 MLOAD PUSH2 0x1D0 SWAP2 SWAP1 PUSH2 0x27C JUMP JUMPDEST PUSH1 0x40 MLOAD DUP1 SWAP2 SUB SWAP1 LOG1 JUMP JUMPDEST PUSH2 0x1E8 PUSH2 0x228 PUSH1 0x20 SHL PUSH1 0x20 SHR JUMP JUMPDEST ISZERO PUSH2 0x21F JUMPI PUSH1 0x40 MLOAD PUSH32 0xD93C066500000000000000000000000000000000000000000000000000000000 DUP2 MSTORE PUSH1 0x4 ADD PUSH1 0x40 MLOAD DUP1 SWAP2 SUB SWAP1 REVERT JUMPDEST JUMP JUMPDEST PUSH0 CALLER SWAP1 POP SWAP1 JUMP JUMPDEST PUSH0 DUP1 PUSH1 0x14 SWAP1 SLOAD SWAP1 PUSH2 0x100 EXP SWAP1 DIV PUSH1 0xFF AND SWAP1 POP SWAP1 JUMP JUMPDEST PUSH0 PUSH20 0xFFFFFFFFFFFFFFFFFFFFFFFFFFFFFFFFFFFFFFFF DUP3 AND SWAP1 POP SWAP2 SWAP1 POP JUMP JUMPDEST PUSH0 PUSH2 0x266 DUP3 PUSH2 0x23D JUMP JUMPDEST SWAP1 POP SWAP2 SWAP1 POP JUMP JUMPDEST PUSH2 0x276 DUP2 PUSH2 0x25C JUMP JUMPDEST DUP3 MSTORE POP POP JUMP JUMPDEST PUSH0 PUSH1 0x20 DUP3 ADD SWAP1 POP PUSH2 0x28F PUSH0 DUP4 ADD DUP5 PUSH2 0x26D JUMP JUMPDEST SWAP3 SWAP2 POP POP JUMP JUMPDEST PUSH2 0x2405 DUP1 PUSH2 0x2A2 PUSH0 CODECOPY PUSH0 RETURN INVALID PUSH1 0x80 PUSH1 0x40 MSTORE PUSH1 0x4 CALLDATASIZE LT PUSH2 0x122 JUMPI PUSH0 CALLDATALOAD PUSH1 0xE0 SHR DUP1 PUSH4 0x5E1B4D99 GT PUSH2 0x9F JUMPI DUP1 PUSH4 0xDA709204 GT PUSH2 0x63 JUMPI DUP1 PUSH4 0xDA709204 EQ PUSH2 0x3DD JUMPI DUP1 PUSH4 0xE44DF161 EQ PUSH2 0x41B JUMPI DUP1 PUSH4 0xF2FDE38B EQ PUSH2 0x445 JUMPI DUP1 PUSH4 0xF867D46B EQ PUSH2 0x46D JUMPI DUP1 PUSH4 0xFF18BF0B EQ PUSH2 0x4A9 JUMPI PUSH2 0x177 JUMP JUMPDEST DUP1 PUSH4 0x5E1B4D99 EQ PUSH2 0x31E JUMPI DUP1 PUSH4 0x715018A6 EQ PUSH2 0x35F JUMPI DUP1 PUSH4 0x8456CB59 EQ PUSH2 0x375 JUMPI DUP1 PUSH4 0x8DA5CB5B EQ PUSH2 0x38B JUMPI DUP1 PUSH4 0x945D1A5C EQ PUSH2 0x3B5 JUMPI PUSH2 0x177 JUMP JUMPDEST DUP1 PUSH4 0x3F4BA83A GT PUSH2 0xE6 JUMPI DUP1 PUSH4 0x3F4BA83A EQ PUSH2 0x262 JUMPI DUP1 PUSH4 0x5312EA8E EQ PUSH2 0x278 JUMPI DUP1 PUSH4 0x58B24F1E EQ PUSH2 0x2A0 JUMPI DUP1 PUSH4 0x591C613C EQ PUSH2 0x2CA JUMPI DUP1 PUSH4 0x5C975ABB EQ PUSH2 0x2F4 JUMPI PUSH2 0x177 JUMP JUMPDEST DUP1 PUSH4 0x359FEA9 EQ PUSH2 0x17B JUMPI DUP1 PUSH4 0x2E1A7D4D EQ PUSH2 0x1A5 JUMPI DUP1 PUSH4 0x2F57EE41 EQ PUSH2 0x1CD JUMPI DUP1 PUSH4 0x31D430B7 EQ PUSH2 0x1E9 JUMPI DUP1 PUSH4 0x3A0D2897 EQ PUSH2 0x226 JUMPI PUSH2 0x177 JUMP JUMPDEST CALLDATASIZE PUSH2 0x177 JUMPI CALLER PUSH20 0xFFFFFFFFFFFFFFFFFFFFFFFFFFFFFFFFFFFFFFFF AND PUSH32 0xD53214CA07BE5520E229C395F05A3E5C0697EC6279184FFBE2758D304FD322CC CALLVALUE PUSH1 0x40 MLOAD PUSH2 0x16D SWAP2 SWAP1 PUSH2 0x1B67 JUMP JUMPDEST PUSH1 0x40 MLOAD DUP1 SWAP2 SUB SWAP1 LOG2 STOP JUMPDEST PUSH0 DUP1 REVERT JUMPDEST CALLVALUE DUP1 ISZERO PUSH2 0x186 JUMPI PUSH0 DUP1 REVERT JUMPDEST POP PUSH2 0x18F PUSH2 0x4B3 JUMP JUMPDEST PUSH1 0x40 MLOAD PUSH2 0x19C SWAP2 SWAP1 PUSH2 0x1B67 JUMP JUMPDEST PUSH1 0x40 MLOAD DUP1 SWAP2 SUB SWAP1 RETURN JUMPDEST CALLVALUE DUP1 ISZERO PUSH2 0x1B0 JUMPI PUSH0 DUP1 REVERT JUMPDEST POP PUSH2 0x1CB PUSH1 0x4 DUP1 CALLDATASIZE SUB DUP2 ADD SWAP1 PUSH2 0x1C6 SWAP2 SWAP1 PUSH2 0x1BAE JUMP JUMPDEST PUSH2 0x4D6 JUMP JUMPDEST STOP JUMPDEST PUSH2 0x1E7 PUSH1 0x4 DUP1 CALLDATASIZE SUB DUP2 ADD SWAP1 PUSH2 0x1E2 SWAP2 SWAP1 PUSH2 0x1C10 JUMP JUMPDEST PUSH2 0x786 JUMP JUMPDEST STOP JUMPDEST CALLVALUE DUP1 ISZERO PUSH2 0x1F4 JUMPI PUSH0 DUP1 REVERT JUMPDEST POP PUSH2 0x20F PUSH1 0x4 DUP1 CALLDATASIZE SUB DUP2 ADD SWAP1 PUSH2 0x20A SWAP2 SWAP1 PUSH2 0x1C10 JUMP JUMPDEST PUSH2 0xB53 JUMP JUMPDEST PUSH1 0x40 MLOAD PUSH2 0x21D SWAP3 SWAP2 SWAP1 PUSH2 0x1C69 JUMP JUMPDEST PUSH1 0x40 MLOAD DUP1 SWAP2 SUB SWAP1 RETURN JUMPDEST CALLVALUE DUP1 ISZERO PUSH2 0x231 JUMPI PUSH0 DUP1 REVERT JUMPDEST POP PUSH2 0x24C PUSH1 0x4 DUP1 CALLDATASIZE SUB DUP2 ADD SWAP1 PUSH2 0x247 SWAP2 SWAP1 PUSH2 0x1CEA JUMP JUMPDEST PUSH2 0xB67 JUMP JUMPDEST PUSH1 0x40 MLOAD PUSH2 0x259 SWAP2 SWAP1 PUSH2 0x1B67 JUMP JUMPDEST PUSH1 0x40 MLOAD DUP1 SWAP2 SUB SWAP1 RETURN JUMPDEST CALLVALUE DUP1 ISZERO PUSH2 0x26D JUMPI PUSH0 DUP1 REVERT JUMPDEST POP PUSH2 0x276 PUSH2 0xD38 JUMP JUMPDEST STOP JUMPDEST CALLVALUE DUP1 ISZERO PUSH2 0x283 JUMPI PUSH0 DUP1 REVERT JUMPDEST POP PUSH2 0x29E PUSH1 0x4 DUP1 CALLDATASIZE SUB DUP2 ADD SWAP1 PUSH2 0x299 SWAP2 SWAP1 PUSH2 0x1BAE JUMP JUMPDEST PUSH2 0xD4A JUMP JUMPDEST STOP JUMPDEST CALLVALUE DUP1 ISZERO PUSH2 0x2AB JUMPI PUSH0 DUP1 REVERT JUMPDEST POP PUSH2 0x2B4 PUSH2 0xFA7 JUMP JUMPDEST PUSH1 0x40 MLOAD PUSH2 0x2C1 SWAP2 SWAP1 PUSH2 0x1B67 JUMP JUMPDEST PUSH1 0x40 MLOAD DUP1 SWAP2 SUB SWAP1 RETURN JUMPDEST CALLVALUE DUP1 ISZERO PUSH2 0x2D5 JUMPI PUSH0 DUP1 REVERT JUMPDEST POP PUSH2 0x2DE PUSH2 0xFAD JUMP JUMPDEST PUSH1 0x40 MLOAD PUSH2 0x2EB SWAP2 SWAP1 PUSH2 0x1B67 JUMP JUMPDEST PUSH1 0x40 MLOAD DUP1 SWAP2 SUB SWAP1 RETURN JUMPDEST CALLVALUE DUP1 ISZERO PUSH2 0x2FF JUMPI PUSH0 DUP1 REVERT JUMPDEST POP PUSH2 0x308 PUSH2 0xFB5 JUMP JUMPDEST PUSH1 0x40 MLOAD PUSH2 0x315 SWAP2 SWAP1 PUSH2 0x1D42 JUMP JUMPDEST PUSH1 0x40 MLOAD DUP1 SWAP2 SUB SWAP1 RETURN JUMPDEST CALLVALUE DUP1 ISZERO PUSH2 0x329 JUMPI PUSH0 DUP1 REVERT JUMPDEST POP PUSH2 0x344 PUSH1 0x4 DUP1 CALLDATASIZE SUB DUP2 ADD SWAP1 PUSH2 0x33F SWAP2 SWAP1 PUSH2 0x1CEA JUMP JUMPDEST PUSH2 0xFCA JUMP JUMPDEST PUSH1 0x40 MLOAD PUSH2 0x356 SWAP7 SWAP6 SWAP5 SWAP4 SWAP3 SWAP2 SWAP1 PUSH2 0x1D85 JUMP JUMPDEST PUSH1 0x40 MLOAD DUP1 SWAP2 SUB SWAP1 RETURN JUMPDEST CALLVALUE DUP1 ISZERO PUSH2 0x36A JUMPI PUSH0 DUP1 REVERT JUMPDEST POP PUSH2 0x373 PUSH2 0x108E JUMP JUMPDEST STOP JUMPDEST CALLVALUE DUP1 ISZERO PUSH2 0x380 JUMPI PUSH0 DUP1 REVERT JUMPDEST POP PUSH2 0x389 PUSH2 0x10A1 JUMP JUMPDEST STOP JUMPDEST CALLVALUE DUP1 ISZERO PUSH2 0x396 JUMPI PUSH0 DUP1 REVERT JUMPDEST POP PUSH2 0x39F PUSH2 0x10B3 JUMP JUMPDEST PUSH1 0x40 MLOAD PUSH2 0x3AC SWAP2 SWAP1 PUSH2 0x1DF3 JUMP JUMPDEST PUSH1 0x40 MLOAD DUP1 SWAP2 SUB SWAP1 RETURN JUMPDEST CALLVALUE DUP1 ISZERO PUSH2 0x3C0 JUMPI PUSH0 DUP1 REVERT JUMPDEST POP PUSH2 0x3DB PUSH1 0x4 DUP1 CALLDATASIZE SUB DUP2 ADD SWAP1 PUSH2 0x3D6 SWAP2 SWAP1 PUSH2 0x1E47 JUMP JUMPDEST PUSH2 0x10DA JUMP JUMPDEST STOP JUMPDEST CALLVALUE DUP1 ISZERO PUSH2 0x3E8 JUMPI PUSH0 DUP1 REVERT JUMPDEST POP PUSH2 0x403 PUSH1 0x4 DUP1 CALLDATASIZE SUB DUP2 ADD SWAP1 PUSH2 0x3FE SWAP2 SWAP1 PUSH2 0x1CEA JUMP JUMPDEST PUSH2 0x1252 JUMP JUMPDEST PUSH1 0x40 MLOAD PUSH2 0x412 SWAP4 SWAP3 SWAP2 SWAP1 PUSH2 0x1E85 JUMP JUMPDEST PUSH1 0x40 MLOAD DUP1 SWAP2 SUB SWAP1 RETURN JUMPDEST CALLVALUE DUP1 ISZERO PUSH2 0x426 JUMPI PUSH0 DUP1 REVERT JUMPDEST POP PUSH2 0x42F PUSH2 0x1433 JUMP JUMPDEST PUSH1 0x40 MLOAD PUSH2 0x43C SWAP2 SWAP1 PUSH2 0x1B67 JUMP JUMPDEST PUSH1 0x40 MLOAD DUP1 SWAP2 SUB SWAP1 RETURN JUMPDEST CALLVALUE DUP1 ISZERO PUSH2 0x450 JUMPI PUSH0 DUP1 REVERT JUMPDEST POP PUSH2 0x46B PUSH1 0x4 DUP1 CALLDATASIZE SUB DUP2 ADD SWAP1 PUSH2 0x466 SWAP2 SWAP1 PUSH2 0x1EBA JUMP JUMPDEST PUSH2 0x1439 JUMP JUMPDEST STOP JUMPDEST CALLVALUE DUP1 ISZERO PUSH2 0x478 JUMPI PUSH0 DUP1 REVERT JUMPDEST POP PUSH2 0x493 PUSH1 0x4 DUP1 CALLDATASIZE SUB DUP2 ADD SWAP1 PUSH2 0x48E SWAP2 SWAP1 PUSH2 0x1EBA JUMP JUMPDEST PUSH2 0x14BD JUMP JUMPDEST PUSH1 0x40 MLOAD PUSH2 0x4A0 SWAP2 SWAP1 PUSH2 0x2042 JUMP JUMPDEST PUSH1 0x40 MLOAD DUP1 SWAP2 SUB SWAP1 RETURN JUMPDEST PUSH2 0x4B1 PUSH2 0x1673 JUMP JUMPDEST STOP JUMPDEST PUSH0 DUP1 SELFBALANCE SWAP1 POP PUSH1 0x3 SLOAD DUP2 GT PUSH2 0x4CA JUMPI PUSH0 SWAP2 POP POP PUSH2 0x4D3 JUMP JUMPDEST PUSH1 0x3 SLOAD DUP2 SUB SWAP2 POP POP JUMPDEST SWAP1 JUMP JUMPDEST PUSH2 0x4DE PUSH2 0x1704 JUMP JUMPDEST PUSH0 PUSH2 0x4E9 CALLER DUP4 PUSH2 0x174A JUMP JUMPDEST SWAP1 POP DUP1 PUSH1 0x1 ADD PUSH1 0xC SWAP1 SLOAD SWAP1 PUSH2 0x100 EXP SWAP1 DIV PUSH1 0xFF AND ISZERO PUSH2 0x534 JUMPI PUSH1 0x40 MLOAD PUSH32 0x6507689F00000000000000000000000000000000000000000000000000000000 DUP2 MSTORE PUSH1 0x4 ADD PUSH1 0x40 MLOAD DUP1 SWAP2 SUB SWAP1 REVERT JUMPDEST DUP1 PUSH1 0x1 ADD PUSH1 0x5 SWAP1 SLOAD SWAP1 PUSH2 0x100 EXP SWAP1 DIV PUSH5 0xFFFFFFFFFF AND PUSH5 0xFFFFFFFFFF AND TIMESTAMP LT ISZERO PUSH2 0x58A JUMPI PUSH1 0x40 MLOAD PUSH32 0x111C440900000000000000000000000000000000000000000000000000000000 DUP2 MSTORE PUSH1 0x4 ADD PUSH1 0x40 MLOAD DUP1 SWAP2 SUB SWAP1 REVERT JUMPDEST PUSH0 DUP2 PUSH0 ADD PUSH0 SWAP1 SLOAD SWAP1 PUSH2 0x100 EXP SWAP1 DIV PUSH16 0xFFFFFFFFFFFFFFFFFFFFFFFFFFFFFFFF AND PUSH16 0xFFFFFFFFFFFFFFFFFFFFFFFFFFFFFFFF AND SWAP1 POP PUSH0 DUP3 PUSH0 ADD PUSH1 0x10 SWAP1 SLOAD SWAP1 PUSH2 0x100 EXP SWAP1 DIV PUSH16 0xFFFFFFFFFFFFFFFFFFFFFFFFFFFFFFFF AND PUSH16 0xFFFFFFFFFFFFFFFFFFFFFFFFFFFFFFFF AND SWAP1 POP PUSH1 0x1 DUP4 PUSH1 0x1 ADD PUSH1 0xC PUSH2 0x100 EXP DUP2 SLOAD DUP2 PUSH1 0xFF MUL NOT AND SWAP1 DUP4 ISZERO ISZERO MUL OR SWAP1 SSTORE POP DUP2 PUSH1 0x3 PUSH0 DUP3 DUP3 SLOAD SUB SWAP3 POP POP DUP2 SWAP1 SSTORE POP DUP1 PUSH1 0x4 PUSH0 DUP3 DUP3 SLOAD SUB SWAP3 POP POP DUP2 SWAP1 SSTORE POP DUP1 DUP3 PUSH2 0x63A SWAP2 SWAP1 PUSH2 0x208F JUMP JUMPDEST SELFBALANCE LT ISZERO PUSH2 0x673 JUMPI PUSH1 0x40 MLOAD PUSH32 0xADC2DBFE00000000000000000000000000000000000000000000000000000000 DUP2 MSTORE PUSH1 0x4 ADD PUSH1 0x40 MLOAD DUP1 SWAP2 SUB SWAP1 REVERT JUMPDEST PUSH0 CALLER PUSH20 0xFFFFFFFFFFFFFFFFFFFFFFFFFFFFFFFFFFFFFFFF AND DUP3 DUP5 PUSH2 0x697 SWAP2 SWAP1 PUSH2 0x208F JUMP JUMPDEST PUSH1 0x40 MLOAD PUSH2 0x6A3 SWAP1 PUSH2 0x20EF JUMP JUMPDEST PUSH0 PUSH1 0x40 MLOAD DUP1 DUP4 SUB DUP2 DUP6 DUP8 GAS CALL SWAP3 POP POP POP RETURNDATASIZE DUP1 PUSH0 DUP2 EQ PUSH2 0x6DD JUMPI PUSH1 0x40 MLOAD SWAP2 POP PUSH1 0x1F NOT PUSH1 0x3F RETURNDATASIZE ADD AND DUP3 ADD PUSH1 0x40 MSTORE RETURNDATASIZE DUP3 MSTORE RETURNDATASIZE PUSH0 PUSH1 0x20 DUP5 ADD RETURNDATACOPY PUSH2 0x6E2 JUMP JUMPDEST PUSH1 0x60 SWAP2 POP JUMPDEST POP POP SWAP1 POP DUP1 PUSH2 0x726 JUMPI PUSH1 0x40 MLOAD PUSH32 0x8C379A000000000000000000000000000000000000000000000000000000000 DUP2 MSTORE PUSH1 0x4 ADD PUSH2 0x71D SWAP1 PUSH2 0x215D JUMP JUMPDEST PUSH1 0x40 MLOAD DUP1 SWAP2 SUB SWAP1 REVERT JUMPDEST DUP5 CALLER PUSH20 0xFFFFFFFFFFFFFFFFFFFFFFFFFFFFFFFFFFFFFFFF AND PUSH32 0x75E161B3E824B114FC1A33274BD7091918DD4E639CEDE50B78B15A4EEA956A21 DUP6 DUP6 PUSH1 0x40 MLOAD PUSH2 0x76F SWAP3 SWAP2 SWAP1 PUSH2 0x217B JUMP JUMPDEST PUSH1 0x40 MLOAD DUP1 SWAP2 SUB SWAP1 LOG3 POP POP POP POP PUSH2 0x783 PUSH2 0x1827 JUMP JUMPDEST POP JUMP JUMPDEST PUSH2 0x78E PUSH2 0x1704 JUMP JUMPDEST PUSH2 0x796 PUSH2 0x1830 JUMP JUMPDEST PUSH0 CALLVALUE SUB PUSH2 0x7CF JUMPI PUSH1 0x40 MLOAD PUSH32 0xCBCA5AA200000000000000000000000000000000000000000000000000000000 DUP2 MSTORE PUSH1 0x4 ADD PUSH1 0x40 MLOAD DUP1 SWAP2 SUB SWAP1 REVERT JUMPDEST PUSH0 DUP1 PUSH2 0x7DA DUP4 PUSH2 0x1871 JUMP JUMPDEST SWAP2 POP SWAP2 POP PUSH0 CALLVALUE SWAP1 POP PUSH0 PUSH2 0x2710 DUP4 PUSH2 0xFFFF AND DUP4 PUSH2 0x7F6 SWAP2 SWAP1 PUSH2 0x21A2 JUMP JUMPDEST PUSH2 0x800 SWAP2 SWAP1 PUSH2 0x2210 JUMP JUMPDEST SWAP1 POP PUSH0 DUP3 SELFBALANCE PUSH2 0x80F SWAP2 SWAP1 PUSH2 0x2240 JUMP JUMPDEST SWAP1 POP PUSH0 PUSH1 0x3 SLOAD DUP3 GT PUSH2 0x821 JUMPI PUSH0 PUSH2 0x830 JUMP JUMPDEST PUSH1 0x3 SLOAD DUP3 PUSH2 0x82F SWAP2 SWAP1 PUSH2 0x2240 JUMP JUMPDEST JUMPDEST SWAP1 POP PUSH0 DUP4 PUSH1 0x4 SLOAD PUSH2 0x841 SWAP2 SWAP1 PUSH2 0x208F JUMP JUMPDEST SWAP1 POP DUP1 DUP3 LT ISZERO PUSH2 0x88A JUMPI DUP2 DUP2 PUSH1 0x40 MLOAD PUSH32 0xB54281CD00000000000000000000000000000000000000000000000000000000 DUP2 MSTORE PUSH1 0x4 ADD PUSH2 0x881 SWAP3 SWAP2 SWAP1 PUSH2 0x217B JUMP JUMPDEST PUSH1 0x40 MLOAD DUP1 SWAP2 SUB SWAP1 REVERT JUMPDEST DUP5 PUSH1 0x3 PUSH0 DUP3 DUP3 SLOAD ADD SWAP3 POP POP DUP2 SWAP1 SSTORE POP DUP4 PUSH1 0x4 PUSH0 DUP3 DUP3 SLOAD ADD SWAP3 POP POP DUP2 SWAP1 SSTORE POP PUSH0 TIMESTAMP SWAP1 POP PUSH0 DUP9 DUP3 PUSH2 0x8B9 SWAP2 SWAP1 PUSH2 0x2273 JUMP JUMPDEST SWAP1 POP PUSH0 PUSH1 0x40 MLOAD DUP1 PUSH1 0xC0 ADD PUSH1 0x40 MSTORE DUP1 DUP10 PUSH16 0xFFFFFFFFFFFFFFFFFFFFFFFFFFFFFFFF AND DUP2 MSTORE PUSH1 0x20 ADD DUP9 PUSH16 0xFFFFFFFFFFFFFFFFFFFFFFFFFFFFFFFF AND DUP2 MSTORE PUSH1 0x20 ADD DUP5 PUSH5 0xFFFFFFFFFF AND DUP2 MSTORE PUSH1 0x20 ADD DUP4 PUSH5 0xFFFFFFFFFF AND DUP2 MSTORE PUSH1 0x20 ADD DUP13 PUSH2 0xFFFF AND DUP2 MSTORE PUSH1 0x20 ADD PUSH0 ISZERO ISZERO DUP2 MSTORE POP SWAP1 POP PUSH1 0x2 PUSH0 CALLER PUSH20 0xFFFFFFFFFFFFFFFFFFFFFFFFFFFFFFFFFFFFFFFF AND PUSH20 0xFFFFFFFFFFFFFFFFFFFFFFFFFFFFFFFFFFFFFFFF AND DUP2 MSTORE PUSH1 0x20 ADD SWAP1 DUP2 MSTORE PUSH1 0x20 ADD PUSH0 KECCAK256 DUP2 SWAP1 DUP1 PUSH1 0x1 DUP2 SLOAD ADD DUP1 DUP3 SSTORE DUP1 SWAP2 POP POP PUSH1 0x1 SWAP1 SUB SWAP1 PUSH0 MSTORE PUSH1 0x20 PUSH0 KECCAK256 SWAP1 PUSH1 0x2 MUL ADD PUSH0 SWAP1 SWAP2 SWAP1 SWAP2 SWAP1 SWAP2 POP PUSH0 DUP3 ADD MLOAD DUP2 PUSH0 ADD PUSH0 PUSH2 0x100 EXP DUP2 SLOAD DUP2 PUSH16 0xFFFFFFFFFFFFFFFFFFFFFFFFFFFFFFFF MUL NOT AND SWAP1 DUP4 PUSH16 0xFFFFFFFFFFFFFFFFFFFFFFFFFFFFFFFF AND MUL OR SWAP1 SSTORE POP PUSH1 0x20 DUP3 ADD MLOAD DUP2 PUSH0 ADD PUSH1 0x10 PUSH2 0x100 EXP DUP2 SLOAD DUP2 PUSH16 0xFFFFFFFFFFFFFFFFFFFFFFFFFFFFFFFF MUL NOT AND SWAP1 DUP4 PUSH16 0xFFFFFFFFFFFFFFFFFFFFFFFFFFFFFFFF AND MUL OR SWAP1 SSTORE POP PUSH1 0x40 DUP3 ADD MLOAD DUP2 PUSH1 0x1 ADD PUSH0 PUSH2 0x100 EXP DUP2 SLOAD DUP2 PUSH5 0xFFFFFFFFFF MUL NOT AND SWAP1 DUP4 PUSH5 0xFFFFFFFFFF AND MUL OR SWAP1 SSTORE POP PUSH1 0x60 DUP3 ADD MLOAD DUP2 PUSH1 0x1 ADD PUSH1 0x5 PUSH2 0x100 EXP DUP2 SLOAD DUP2 PUSH5 0xFFFFFFFFFF MUL NOT AND SWAP1 DUP4 PUSH5 0xFFFFFFFFFF AND MUL OR SWAP1 SSTORE POP PUSH1 0x80 DUP3 ADD MLOAD DUP2 PUSH1 0x1 ADD PUSH1 0xA PUSH2 0x100 EXP DUP2 SLOAD DUP2 PUSH2 0xFFFF MUL NOT AND SWAP1 DUP4 PUSH2 0xFFFF AND MUL OR SWAP1 SSTORE POP PUSH1 0xA0 DUP3 ADD MLOAD DUP2 PUSH1 0x1 ADD PUSH1 0xC PUSH2 0x100 EXP DUP2 SLOAD DUP2 PUSH1 0xFF MUL NOT AND SWAP1 DUP4 ISZERO ISZERO MUL OR SWAP1 SSTORE POP POP POP PUSH0 PUSH1 0x1 PUSH1 0x2 PUSH0 CALLER PUSH20 0xFFFFFFFFFFFFFFFFFFFFFFFFFFFFFFFFFFFFFFFF AND PUSH20 0xFFFFFFFFFFFFFFFFFFFFFFFFFFFFFFFFFFFFFFFF AND DUP2 MSTORE PUSH1 0x20 ADD SWAP1 DUP2 MSTORE PUSH1 0x20 ADD PUSH0 KECCAK256 DUP1 SLOAD SWAP1 POP PUSH2 0xAE5 SWAP2 SWAP1 PUSH2 0x2240 JUMP JUMPDEST SWAP1 POP DUP1 DUP13 PUSH2 0xFFFF AND CALLER PUSH20 0xFFFFFFFFFFFFFFFFFFFFFFFFFFFFFFFFFFFFFFFF AND PUSH32 0x60757FD06465D62DC907F89D9DE29CA316C005A36D20C14BDE039B5F09984BF1 DUP13 DUP8 PUSH1 0x40 MLOAD PUSH2 0xB35 SWAP3 SWAP2 SWAP1 PUSH2 0x22AB JUMP JUMPDEST PUSH1 0x40 MLOAD DUP1 SWAP2 SUB SWAP1 LOG4 POP POP POP POP POP POP POP POP POP POP POP PUSH2 0xB50 PUSH2 0x1827 JUMP JUMPDEST POP JUMP JUMPDEST PUSH0 DUP1 PUSH2 0xB5E DUP4 PUSH2 0x1871 JUMP JUMPDEST SWAP2 POP SWAP2 POP SWAP2 POP SWAP2 JUMP JUMPDEST PUSH0 DUP1 PUSH1 0x2 PUSH0 DUP6 PUSH20 0xFFFFFFFFFFFFFFFFFFFFFFFFFFFFFFFFFFFFFFFF AND PUSH20 0xFFFFFFFFFFFFFFFFFFFFFFFFFFFFFFFFFFFFFFFF AND DUP2 MSTORE PUSH1 0x20 ADD SWAP1 DUP2 MSTORE PUSH1 0x20 ADD PUSH0 KECCAK256 DUP4 DUP2 SLOAD DUP2 LT PUSH2 0xBB8 JUMPI PUSH2 0xBB7 PUSH2 0x22D2 JUMP JUMPDEST JUMPDEST SWAP1 PUSH0 MSTORE PUSH1 0x20 PUSH0 KECCAK256 SWAP1 PUSH1 0x2 MUL ADD PUSH1 0x40 MLOAD DUP1 PUSH1 0xC0 ADD PUSH1 0x40 MSTORE SWAP1 DUP2 PUSH0 DUP3 ADD PUSH0 SWAP1 SLOAD SWAP1 PUSH2 0x100 EXP SWAP1 DIV PUSH16 0xFFFFFFFFFFFFFFFFFFFFFFFFFFFFFFFF AND PUSH16 0xFFFFFFFFFFFFFFFFFFFFFFFFFFFFFFFF AND PUSH16 0xFFFFFFFFFFFFFFFFFFFFFFFFFFFFFFFF AND DUP2 MSTORE PUSH1 0x20 ADD PUSH0 DUP3 ADD PUSH1 0x10 SWAP1 SLOAD SWAP1 PUSH2 0x100 EXP SWAP1 DIV PUSH16 0xFFFFFFFFFFFFFFFFFFFFFFFFFFFFFFFF AND PUSH16 0xFFFFFFFFFFFFFFFFFFFFFFFFFFFFFFFF AND PUSH16 0xFFFFFFFFFFFFFFFFFFFFFFFFFFFFFFFF AND DUP2 MSTORE PUSH1 0x20 ADD PUSH1 0x1 DUP3 ADD PUSH0 SWAP1 SLOAD SWAP1 PUSH2 0x100 EXP SWAP1 DIV PUSH5 0xFFFFFFFFFF AND PUSH5 0xFFFFFFFFFF AND PUSH5 0xFFFFFFFFFF AND DUP2 MSTORE PUSH1 0x20 ADD PUSH1 0x1 DUP3 ADD PUSH1 0x5 SWAP1 SLOAD SWAP1 PUSH2 0x100 EXP SWAP1 DIV PUSH5 0xFFFFFFFFFF AND PUSH5 0xFFFFFFFFFF AND PUSH5 0xFFFFFFFFFF AND DUP2 MSTORE PUSH1 0x20 ADD PUSH1 0x1 DUP3 ADD PUSH1 0xA SWAP1 SLOAD SWAP1 PUSH2 0x100 EXP SWAP1 DIV PUSH2 0xFFFF AND PUSH2 0xFFFF AND PUSH2 0xFFFF AND DUP2 MSTORE PUSH1 0x20 ADD PUSH1 0x1 DUP3 ADD PUSH1 0xC SWAP1 SLOAD SWAP1 PUSH2 0x100 EXP SWAP1 DIV PUSH1 0xFF AND ISZERO ISZERO ISZERO ISZERO DUP2 MSTORE POP POP SWAP1 POP DUP1 PUSH1 0x60 ADD MLOAD PUSH5 0xFFFFFFFFFF AND TIMESTAMP LT ISZERO DUP1 PUSH2 0xD09 JUMPI POP DUP1 PUSH1 0xA0 ADD MLOAD JUMPDEST ISZERO PUSH2 0xD17 JUMPI PUSH0 SWAP2 POP POP PUSH2 0xD32 JUMP JUMPDEST TIMESTAMP DUP2 PUSH1 0x60 ADD MLOAD PUSH5 0xFFFFFFFFFF AND PUSH2 0xD2E SWAP2 SWAP1 PUSH2 0x2240 JUMP JUMPDEST SWAP2 POP POP JUMPDEST SWAP3 SWAP2 POP POP JUMP JUMPDEST PUSH2 0xD40 PUSH2 0x18FD JUMP JUMPDEST PUSH2 0xD48 PUSH2 0x1984 JUMP JUMPDEST JUMP JUMPDEST PUSH2 0xD52 PUSH2 0x1704 JUMP JUMPDEST PUSH0 PUSH2 0xD5D CALLER DUP4 PUSH2 0x174A JUMP JUMPDEST SWAP1 POP DUP1 PUSH1 0x1 ADD PUSH1 0xC SWAP1 SLOAD SWAP1 PUSH2 0x100 EXP SWAP1 DIV PUSH1 0xFF AND ISZERO PUSH2 0xDA8 JUMPI PUSH1 0x40 MLOAD PUSH32 0x6507689F00000000000000000000000000000000000000000000000000000000 DUP2 MSTORE PUSH1 0x4 ADD PUSH1 0x40 MLOAD DUP1 SWAP2 SUB SWAP1 REVERT JUMPDEST DUP1 PUSH1 0x1 ADD PUSH1 0x5 SWAP1 SLOAD SWAP1 PUSH2 0x100 EXP SWAP1 DIV PUSH5 0xFFFFFFFFFF AND PUSH5 0xFFFFFFFFFF AND TIMESTAMP LT PUSH2 0xDFD JUMPI PUSH1 0x40 MLOAD PUSH32 0xB453C22000000000000000000000000000000000000000000000000000000000 DUP2 MSTORE PUSH1 0x4 ADD PUSH1 0x40 MLOAD DUP1 SWAP2 SUB SWAP1 REVERT JUMPDEST PUSH0 DUP2 PUSH0 ADD PUSH0 SWAP1 SLOAD SWAP1 PUSH2 0x100 EXP SWAP1 DIV PUSH16 0xFFFFFFFFFFFFFFFFFFFFFFFFFFFFFFFF AND PUSH16 0xFFFFFFFFFFFFFFFFFFFFFFFFFFFFFFFF AND SWAP1 POP PUSH0 DUP3 PUSH0 ADD PUSH1 0x10 SWAP1 SLOAD SWAP1 PUSH2 0x100 EXP SWAP1 DIV PUSH16 0xFFFFFFFFFFFFFFFFFFFFFFFFFFFFFFFF AND PUSH16 0xFFFFFFFFFFFFFFFFFFFFFFFFFFFFFFFF AND SWAP1 POP PUSH1 0x1 DUP4 PUSH1 0x1 ADD PUSH1 0xC PUSH2 0x100 EXP DUP2 SLOAD DUP2 PUSH1 0xFF MUL NOT AND SWAP1 DUP4 ISZERO ISZERO MUL OR SWAP1 SSTORE POP DUP2 PUSH1 0x3 PUSH0 DUP3 DUP3 SLOAD SUB SWAP3 POP POP DUP2 SWAP1 SSTORE POP DUP1 PUSH1 0x4 PUSH0 DUP3 DUP3 SLOAD SUB SWAP3 POP POP DUP2 SWAP1 SSTORE POP PUSH0 CALLER PUSH20 0xFFFFFFFFFFFFFFFFFFFFFFFFFFFFFFFFFFFFFFFF AND DUP4 PUSH1 0x40 MLOAD PUSH2 0xEC6 SWAP1 PUSH2 0x20EF JUMP JUMPDEST PUSH0 PUSH1 0x40 MLOAD DUP1 DUP4 SUB DUP2 DUP6 DUP8 GAS CALL SWAP3 POP POP POP RETURNDATASIZE DUP1 PUSH0 DUP2 EQ PUSH2 0xF00 JUMPI PUSH1 0x40 MLOAD SWAP2 POP PUSH1 0x1F NOT PUSH1 0x3F RETURNDATASIZE ADD AND DUP3 ADD PUSH1 0x40 MSTORE RETURNDATASIZE DUP3 MSTORE RETURNDATASIZE PUSH0 PUSH1 0x20 DUP5 ADD RETURNDATACOPY PUSH2 0xF05 JUMP JUMPDEST PUSH1 0x60 SWAP2 POP JUMPDEST POP POP SWAP1 POP DUP1 PUSH2 0xF49 JUMPI PUSH1 0x40 MLOAD PUSH32 0x8C379A000000000000000000000000000000000000000000000000000000000 DUP2 MSTORE PUSH1 0x4 ADD PUSH2 0xF40 SWAP1 PUSH2 0x2349 JUMP JUMPDEST PUSH1 0x40 MLOAD DUP1 SWAP2 SUB SWAP1 REVERT JUMPDEST DUP5 CALLER PUSH20 0xFFFFFFFFFFFFFFFFFFFFFFFFFFFFFFFFFFFFFFFF AND PUSH32 0xB47853100B79D8AFA66237BDB4F7F09D96628EE23AA8AAC8A8C21A901C67DDB2 DUP6 PUSH1 0x40 MLOAD PUSH2 0xF90 SWAP2 SWAP1 PUSH2 0x1B67 JUMP JUMPDEST PUSH1 0x40 MLOAD DUP1 SWAP2 SUB SWAP1 LOG3 POP POP POP POP PUSH2 0xFA4 PUSH2 0x1827 JUMP JUMPDEST POP JUMP JUMPDEST PUSH1 0x3 SLOAD DUP2 JUMP JUMPDEST PUSH0 PUSH1 0x3 SWAP1 POP SWAP1 JUMP JUMPDEST PUSH0 DUP1 PUSH1 0x14 SWAP1 SLOAD SWAP1 PUSH2 0x100 EXP SWAP1 DIV PUSH1 0xFF AND SWAP1 POP SWAP1 JUMP JUMPDEST PUSH1 0x2 PUSH1 0x20 MSTORE DUP2 PUSH0 MSTORE PUSH1 0x40 PUSH0 KECCAK256 DUP2 DUP2 SLOAD DUP2 LT PUSH2 0xFE3 JUMPI PUSH0 DUP1 REVERT JUMPDEST SWAP1 PUSH0 MSTORE PUSH1 0x20 PUSH0 KECCAK256 SWAP1 PUSH1 0x2 MUL ADD PUSH0 SWAP2 POP SWAP2 POP POP DUP1 PUSH0 ADD PUSH0 SWAP1 SLOAD SWAP1 PUSH2 0x100 EXP SWAP1 DIV PUSH16 0xFFFFFFFFFFFFFFFFFFFFFFFFFFFFFFFF AND SWAP1 DUP1 PUSH0 ADD PUSH1 0x10 SWAP1 SLOAD SWAP1 PUSH2 0x100 EXP SWAP1 DIV PUSH16 0xFFFFFFFFFFFFFFFFFFFFFFFFFFFFFFFF AND SWAP1 DUP1 PUSH1 0x1 ADD PUSH0 SWAP1 SLOAD SWAP1 PUSH2 0x100 EXP SWAP1 DIV PUSH5 0xFFFFFFFFFF AND SWAP1 DUP1 PUSH1 0x1 ADD PUSH1 0x5 SWAP1 SLOAD SWAP1 PUSH2 0x100 EXP SWAP1 DIV PUSH5 0xFFFFFFFFFF AND SWAP1 DUP1 PUSH1 0x1 ADD PUSH1 0xA SWAP1 SLOAD SWAP1 PUSH2 0x100 EXP SWAP1 DIV PUSH2 0xFFFF AND SWAP1 DUP1 PUSH1 0x1 ADD PUSH1 0xC SWAP1 SLOAD SWAP1 PUSH2 0x100 EXP SWAP1 DIV PUSH1 0xFF AND SWAP1 POP DUP7 JUMP JUMPDEST PUSH2 0x1096 PUSH2 0x18FD JUMP JUMPDEST PUSH2 0x109F PUSH0 PUSH2 0x19E5 JUMP JUMPDEST JUMP JUMPDEST PUSH2 0x10A9 PUSH2 0x18FD JUMP JUMPDEST PUSH2 0x10B1 PUSH2 0x1AA6 JUMP JUMPDEST JUMP JUMPDEST PUSH0 DUP1 PUSH0 SWAP1 SLOAD SWAP1 PUSH2 0x100 EXP SWAP1 DIV PUSH20 0xFFFFFFFFFFFFFFFFFFFFFFFFFFFFFFFFFFFFFFFF AND SWAP1 POP SWAP1 JUMP JUMPDEST PUSH2 0x10E2 PUSH2 0x18FD JUMP JUMPDEST PUSH2 0x10EA PUSH2 0x1704 JUMP JUMPDEST PUSH0 PUSH20 0xFFFFFFFFFFFFFFFFFFFFFFFFFFFFFFFFFFFFFFFF AND DUP3 PUSH20 0xFFFFFFFFFFFFFFFFFFFFFFFFFFFFFFFFFFFFFFFF AND SUB PUSH2 0x114F JUMPI PUSH1 0x40 MLOAD PUSH32 0x18C7C3DA00000000000000000000000000000000000000000000000000000000 DUP2 MSTORE PUSH1 0x4 ADD PUSH1 0x40 MLOAD DUP1 SWAP2 SUB SWAP1 REVERT JUMPDEST PUSH0 DUP3 PUSH20 0xFFFFFFFFFFFFFFFFFFFFFFFFFFFFFFFFFFFFFFFF AND DUP3 PUSH1 0x40 MLOAD PUSH2 0x1174 SWAP1 PUSH2 0x20EF JUMP JUMPDEST PUSH0 PUSH1 0x40 MLOAD DUP1 DUP4 SUB DUP2 DUP6 DUP8 GAS CALL SWAP3 POP POP POP RETURNDATASIZE DUP1 PUSH0 DUP2 EQ PUSH2 0x11AE JUMPI PUSH1 0x40 MLOAD SWAP2 POP PUSH1 0x1F NOT PUSH1 0x3F RETURNDATASIZE ADD AND DUP3 ADD PUSH1 0x40 MSTORE RETURNDATASIZE DUP3 MSTORE RETURNDATASIZE PUSH0 PUSH1 0x20 DUP5 ADD RETURNDATACOPY PUSH2 0x11B3 JUMP JUMPDEST PUSH1 0x60 SWAP2 POP JUMPDEST POP POP SWAP1 POP DUP1 PUSH2 0x11F7 JUMPI PUSH1 0x40 MLOAD PUSH32 0x8C379A000000000000000000000000000000000000000000000000000000000 DUP2 MSTORE PUSH1 0x4 ADD PUSH2 0x11EE SWAP1 PUSH2 0x23B1 JUMP JUMPDEST PUSH1 0x40 MLOAD DUP1 SWAP2 SUB SWAP1 REVERT JUMPDEST DUP3 PUSH20 0xFFFFFFFFFFFFFFFFFFFFFFFFFFFFFFFFFFFFFFFF AND PUSH32 0xBA443E8671971C36CDEB74F87321041DAFF421230CBC5E36CB835269ED1D8B7E DUP4 PUSH1 0x40 MLOAD PUSH2 0x123D SWAP2 SWAP1 PUSH2 0x1B67 JUMP JUMPDEST PUSH1 0x40 MLOAD DUP1 SWAP2 SUB SWAP1 LOG2 POP PUSH2 0x124E PUSH2 0x1827 JUMP JUMPDEST POP POP JUMP JUMPDEST PUSH0 DUP1 PUSH0 DUP1 PUSH1 0x2 PUSH0 DUP8 PUSH20 0xFFFFFFFFFFFFFFFFFFFFFFFFFFFFFFFFFFFFFFFF AND PUSH20 0xFFFFFFFFFFFFFFFFFFFFFFFFFFFFFFFFFFFFFFFF AND DUP2 MSTORE PUSH1 0x20 ADD SWAP1 DUP2 MSTORE PUSH1 0x20 ADD PUSH0 KECCAK256 DUP6 DUP2 SLOAD DUP2 LT PUSH2 0x12A5 JUMPI PUSH2 0x12A4 PUSH2 0x22D2 JUMP JUMPDEST JUMPDEST SWAP1 PUSH0 MSTORE PUSH1 0x20 PUSH0 KECCAK256 SWAP1 PUSH1 0x2 MUL ADD PUSH1 0x40 MLOAD DUP1 PUSH1 0xC0 ADD PUSH1 0x40 MSTORE SWAP1 DUP2 PUSH0 DUP3 ADD PUSH0 SWAP1 SLOAD SWAP1 PUSH2 0x100 EXP SWAP1 DIV PUSH16 0xFFFFFFFFFFFFFFFFFFFFFFFFFFFFFFFF AND PUSH16 0xFFFFFFFFFFFFFFFFFFFFFFFFFFFFFFFF AND PUSH16 0xFFFFFFFFFFFFFFFFFFFFFFFFFFFFFFFF AND DUP2 MSTORE PUSH1 0x20 ADD PUSH0 DUP3 ADD PUSH1 0x10 SWAP1 SLOAD SWAP1 PUSH2 0x100 EXP SWAP1 DIV PUSH16 0xFFFFFFFFFFFFFFFFFFFFFFFFFFFFFFFF AND PUSH16 0xFFFFFFFFFFFFFFFFFFFFFFFFFFFFFFFF AND PUSH16 0xFFFFFFFFFFFFFFFFFFFFFFFFFFFFFFFF AND DUP2 MSTORE PUSH1 0x20 ADD PUSH1 0x1 DUP3 ADD PUSH0 SWAP1 SLOAD SWAP1 PUSH2 0x100 EXP SWAP1 DIV PUSH5 0xFFFFFFFFFF AND PUSH5 0xFFFFFFFFFF AND PUSH5 0xFFFFFFFFFF AND DUP2 MSTORE PUSH1 0x20 ADD PUSH1 0x1 DUP3 ADD PUSH1 0x5 SWAP1 SLOAD SWAP1 PUSH2 0x100 EXP SWAP1 DIV PUSH5 0xFFFFFFFFFF AND PUSH5 0xFFFFFFFFFF AND PUSH5 0xFFFFFFFFFF AND DUP2 MSTORE PUSH1 0x20 ADD PUSH1 0x1 DUP3 ADD PUSH1 0xA SWAP1 SLOAD SWAP1 PUSH2 0x100 EXP SWAP1 DIV PUSH2 0xFFFF AND PUSH2 0xFFFF AND PUSH2 0xFFFF AND DUP2 MSTORE PUSH1 0x20 ADD PUSH1 0x1 DUP3 ADD PUSH1 0xC SWAP1 SLOAD SWAP1 PUSH2 0x100 EXP SWAP1 DIV PUSH1 0xFF AND ISZERO ISZERO ISZERO ISZERO DUP2 MSTORE POP POP SWAP1 POP DUP1 PUSH0 ADD MLOAD PUSH16 0xFFFFFFFFFFFFFFFFFFFFFFFFFFFFFFFF AND SWAP4 POP DUP1 PUSH1 0x20 ADD MLOAD PUSH16 0xFFFFFFFFFFFFFFFFFFFFFFFFFFFFFFFF AND SWAP3 POP DUP1 PUSH1 0x60 ADD MLOAD PUSH5 0xFFFFFFFFFF AND TIMESTAMP LT ISZERO DUP1 ISZERO PUSH2 0x1429 JUMPI POP DUP1 PUSH1 0xA0 ADD MLOAD ISZERO JUMPDEST SWAP2 POP POP SWAP3 POP SWAP3 POP SWAP3 JUMP JUMPDEST PUSH1 0x4 SLOAD DUP2 JUMP JUMPDEST PUSH2 0x1441 PUSH2 0x18FD JUMP JUMPDEST PUSH0 PUSH20 0xFFFFFFFFFFFFFFFFFFFFFFFFFFFFFFFFFFFFFFFF AND DUP2 PUSH20 0xFFFFFFFFFFFFFFFFFFFFFFFFFFFFFFFFFFFFFFFF AND SUB PUSH2 0x14B1 JUMPI PUSH0 PUSH1 0x40 MLOAD PUSH32 0x1E4FBDF700000000000000000000000000000000000000000000000000000000 DUP2 MSTORE PUSH1 0x4 ADD PUSH2 0x14A8 SWAP2 SWAP1 PUSH2 0x1DF3 JUMP JUMPDEST PUSH1 0x40 MLOAD DUP1 SWAP2 SUB SWAP1 REVERT JUMPDEST PUSH2 0x14BA DUP2 PUSH2 0x19E5 JUMP JUMPDEST POP JUMP JUMPDEST PUSH1 0x60 PUSH1 0x2 PUSH0 DUP4 PUSH20 0xFFFFFFFFFFFFFFFFFFFFFFFFFFFFFFFFFFFFFFFF AND PUSH20 0xFFFFFFFFFFFFFFFFFFFFFFFFFFFFFFFFFFFFFFFF AND DUP2 MSTORE PUSH1 0x20 ADD SWAP1 DUP2 MSTORE PUSH1 0x20 ADD PUSH0 KECCAK256 DUP1 SLOAD DUP1 PUSH1 0x20 MUL PUSH1 0x20 ADD PUSH1 0x40 MLOAD SWAP1 DUP2 ADD PUSH1 0x40 MSTORE DUP1 SWAP3 SWAP2 SWAP1 DUP2 DUP2 MSTORE PUSH1 0x20 ADD PUSH0 SWAP1 JUMPDEST DUP3 DUP3 LT ISZERO PUSH2 0x1668 JUMPI DUP4 DUP3 SWAP1 PUSH0 MSTORE PUSH1 0x20 PUSH0 KECCAK256 SWAP1 PUSH1 0x2 MUL ADD PUSH1 0x40 MLOAD DUP1 PUSH1 0xC0 ADD PUSH1 0x40 MSTORE SWAP1 DUP2 PUSH0 DUP3 ADD PUSH0 SWAP1 SLOAD SWAP1 PUSH2 0x100 EXP SWAP1 DIV PUSH16 0xFFFFFFFFFFFFFFFFFFFFFFFFFFFFFFFF AND PUSH16 0xFFFFFFFFFFFFFFFFFFFFFFFFFFFFFFFF AND PUSH16 0xFFFFFFFFFFFFFFFFFFFFFFFFFFFFFFFF AND DUP2 MSTORE PUSH1 0x20 ADD PUSH0 DUP3 ADD PUSH1 0x10 SWAP1 SLOAD SWAP1 PUSH2 0x100 EXP SWAP1 DIV PUSH16 0xFFFFFFFFFFFFFFFFFFFFFFFFFFFFFFFF AND PUSH16 0xFFFFFFFFFFFFFFFFFFFFFFFFFFFFFFFF AND PUSH16 0xFFFFFFFFFFFFFFFFFFFFFFFFFFFFFFFF AND DUP2 MSTORE PUSH1 0x20 ADD PUSH1 0x1 DUP3 ADD PUSH0 SWAP1 SLOAD SWAP1 PUSH2 0x100 EXP SWAP1 DIV PUSH5 0xFFFFFFFFFF AND PUSH5 0xFFFFFFFFFF AND PUSH5 0xFFFFFFFFFF AND DUP2 MSTORE PUSH1 0x20 ADD PUSH1 0x1 DUP3 ADD PUSH1 0x5 SWAP1 SLOAD SWAP1 PUSH2 0x100 EXP SWAP1 DIV PUSH5 0xFFFFFFFFFF AND PUSH5 0xFFFFFFFFFF AND PUSH5 0xFFFFFFFFFF AND DUP2 MSTORE PUSH1 0x20 ADD PUSH1 0x1 DUP3 ADD PUSH1 0xA SWAP1 SLOAD SWAP1 PUSH2 0x100 EXP SWAP1 DIV PUSH2 0xFFFF AND PUSH2 0xFFFF AND PUSH2 0xFFFF AND DUP2 MSTORE PUSH1 0x20 ADD PUSH1 0x1 DUP3 ADD PUSH1 0xC SWAP1 SLOAD SWAP1 PUSH2 0x100 EXP SWAP1 DIV PUSH1 0xFF AND ISZERO ISZERO ISZERO ISZERO DUP2 MSTORE POP POP DUP2 MSTORE PUSH1 0x20 ADD SWAP1 PUSH1 0x1 ADD SWAP1 PUSH2 0x151B JUMP JUMPDEST POP POP POP POP SWAP1 POP SWAP2 SWAP1 POP JUMP JUMPDEST PUSH2 0x167B PUSH2 0x18FD JUMP JUMPDEST PUSH0 CALLVALUE SUB PUSH2 0x16B4 JUMPI PUSH1 0x40 MLOAD PUSH32 0xF2365B5B00000000000000000000000000000000000000000000000000000000 DUP2 MSTORE PUSH1 0x4 ADD PUSH1 0x40 MLOAD DUP1 SWAP2 SUB SWAP1 REVERT JUMPDEST CALLER PUSH20 0xFFFFFFFFFFFFFFFFFFFFFFFFFFFFFFFFFFFFFFFF AND PUSH32 0xD53214CA07BE5520E229C395F05A3E5C0697EC6279184FFBE2758D304FD322CC CALLVALUE PUSH1 0x40 MLOAD PUSH2 0x16FA SWAP2 SWAP1 PUSH2 0x1B67 JUMP JUMPDEST PUSH1 0x40 MLOAD DUP1 SWAP2 SUB SWAP1 LOG2 JUMP JUMPDEST PUSH1 0x2 PUSH1 0x1 SLOAD SUB PUSH2 0x1740 JUMPI PUSH1 0x40 MLOAD PUSH32 0x3EE5AEB500000000000000000000000000000000000000000000000000000000 DUP2 MSTORE PUSH1 0x4 ADD PUSH1 0x40 MLOAD DUP1 SWAP2 SUB SWAP1 REVERT JUMPDEST PUSH1 0x2 PUSH1 0x1 DUP2 SWAP1 SSTORE POP JUMP JUMPDEST PUSH0 PUSH1 0x2 PUSH0 DUP5 PUSH20 0xFFFFFFFFFFFFFFFFFFFFFFFFFFFFFFFFFFFFFFFF AND PUSH20 0xFFFFFFFFFFFFFFFFFFFFFFFFFFFFFFFFFFFFFFFF AND DUP2 MSTORE PUSH1 0x20 ADD SWAP1 DUP2 MSTORE PUSH1 0x20 ADD PUSH0 KECCAK256 DUP1 SLOAD SWAP1 POP DUP3 LT PUSH2 0x17C4 JUMPI PUSH1 0x40 MLOAD PUSH32 0xCD4C881400000000000000000000000000000000000000000000000000000000 DUP2 MSTORE PUSH1 0x4 ADD PUSH1 0x40 MLOAD DUP1 SWAP2 SUB SWAP1 REVERT JUMPDEST PUSH1 0x2 PUSH0 DUP5 PUSH20 0xFFFFFFFFFFFFFFFFFFFFFFFFFFFFFFFFFFFFFFFF AND PUSH20 0xFFFFFFFFFFFFFFFFFFFFFFFFFFFFFFFFFFFFFFFF AND DUP2 MSTORE PUSH1 0x20 ADD SWAP1 DUP2 MSTORE PUSH1 0x20 ADD PUSH0 KECCAK256 DUP3 DUP2 SLOAD DUP2 LT PUSH2 0x1813 JUMPI PUSH2 0x1812 PUSH2 0x22D2 JUMP JUMPDEST JUMPDEST SWAP1 PUSH0 MSTORE PUSH1 0x20 PUSH0 KECCAK256 SWAP1 PUSH1 0x2 MUL ADD SWAP1 POP SWAP3 SWAP2 POP POP JUMP JUMPDEST PUSH1 0x1 DUP1 DUP2 SWAP1 SSTORE POP JUMP JUMPDEST PUSH2 0x1838 PUSH2 0xFB5 JUMP JUMPDEST ISZERO PUSH2 0x186F JUMPI PUSH1 0x40 MLOAD PUSH32 0xD93C066500000000000000000000000000000000000000000000000000000000 DUP2 MSTORE PUSH1 0x4 ADD PUSH1 0x40 MLOAD DUP1 SWAP2 SUB SWAP1 REVERT JUMPDEST JUMP JUMPDEST PUSH0 DUP1 PUSH0 DUP4 PUSH2 0xFFFF AND SUB PUSH2 0x188E JUMPI PUSH3 0x15180 PUSH2 0x7D0 SWAP2 POP SWAP2 POP PUSH2 0x18F8 JUMP JUMPDEST PUSH1 0x1 DUP4 PUSH2 0xFFFF AND SUB PUSH2 0x18AA JUMPI PUSH3 0x2A300 PUSH2 0x1388 SWAP2 POP SWAP2 POP PUSH2 0x18F8 JUMP JUMPDEST PUSH1 0x2 DUP4 PUSH2 0xFFFF AND SUB PUSH2 0x18C6 JUMPI PUSH3 0x3F480 PUSH2 0x2710 SWAP2 POP SWAP2 POP PUSH2 0x18F8 JUMP JUMPDEST PUSH1 0x40 MLOAD PUSH32 0x2171B80B00000000000000000000000000000000000000000000000000000000 DUP2 MSTORE PUSH1 0x4 ADD PUSH1 0x40 MLOAD DUP1 SWAP2 SUB SWAP1 REVERT JUMPDEST SWAP2 POP SWAP2 JUMP JUMPDEST PUSH2 0x1905 PUSH2 0x1B08 JUMP JUMPDEST PUSH20 0xFFFFFFFFFFFFFFFFFFFFFFFFFFFFFFFFFFFFFFFF AND PUSH2 0x1923 PUSH2 0x10B3 JUMP JUMPDEST PUSH20 0xFFFFFFFFFFFFFFFFFFFFFFFFFFFFFFFFFFFFFFFF AND EQ PUSH2 0x1982 JUMPI PUSH2 0x1946 PUSH2 0x1B08 JUMP JUMPDEST PUSH1 0x40 MLOAD PUSH32 0x118CDAA700000000000000000000000000000000000000000000000000000000 DUP2 MSTORE PUSH1 0x4 ADD PUSH2 0x1979 SWAP2 SWAP1 PUSH2 0x1DF3 JUMP JUMPDEST PUSH1 0x40 MLOAD DUP1 SWAP2 SUB SWAP1 REVERT JUMPDEST JUMP JUMPDEST PUSH2 0x198C PUSH2 0x1B0F JUMP JUMPDEST PUSH0 DUP1 PUSH1 0x14 PUSH2 0x100 EXP DUP2 SLOAD DUP2 PUSH1 0xFF MUL NOT AND SWAP1 DUP4 ISZERO ISZERO MUL OR SWAP1 SSTORE POP PUSH32 0x5DB9EE0A495BF2E6FF9C91A7834C1BA4FDD244A5E8AA4E537BD38AEAE4B073AA PUSH2 0x19CE PUSH2 0x1B08 JUMP JUMPDEST PUSH1 0x40 MLOAD PUSH2 0x19DB SWAP2 SWAP1 PUSH2 0x1DF3 JUMP JUMPDEST PUSH1 0x40 MLOAD DUP1 SWAP2 SUB SWAP1 LOG1 JUMP JUMPDEST PUSH0 DUP1 PUSH0 SWAP1 SLOAD SWAP1 PUSH2 0x100 EXP SWAP1 DIV PUSH20 0xFFFFFFFFFFFFFFFFFFFFFFFFFFFFFFFFFFFFFFFF AND SWAP1 POP DUP2 PUSH0 DUP1 PUSH2 0x100 EXP DUP2 SLOAD DUP2 PUSH20 0xFFFFFFFFFFFFFFFFFFFFFFFFFFFFFFFFFFFFFFFF MUL NOT AND SWAP1 DUP4 PUSH20 0xFFFFFFFFFFFFFFFFFFFFFFFFFFFFFFFFFFFFFFFF AND MUL OR SWAP1 SSTORE POP DUP2 PUSH20 0xFFFFFFFFFFFFFFFFFFFFFFFFFFFFFFFFFFFFFFFF AND DUP2 PUSH20 0xFFFFFFFFFFFFFFFFFFFFFFFFFFFFFFFFFFFFFFFF AND PUSH32 0x8BE0079C531659141344CD1FD0A4F28419497F9722A3DAAFE3B4186F6B6457E0 PUSH1 0x40 MLOAD PUSH1 0x40 MLOAD DUP1 SWAP2 SUB SWAP1 LOG3 POP POP JUMP JUMPDEST PUSH2 0x1AAE PUSH2 0x1830 JUMP JUMPDEST PUSH1 0x1 PUSH0 PUSH1 0x14 PUSH2 0x100 EXP DUP2 SLOAD DUP2 PUSH1 0xFF MUL NOT AND SWAP1 DUP4 ISZERO ISZERO MUL OR SWAP1 SSTORE POP PUSH32 0x62E78CEA01BEE320CD4E420270B5EA74000D11B0C9F74754EBDBFC544B05A258 PUSH2 0x1AF1 PUSH2 0x1B08 JUMP JUMPDEST PUSH1 0x40 MLOAD PUSH2 0x1AFE SWAP2 SWAP1 PUSH2 0x1DF3 JUMP JUMPDEST PUSH1 0x40 MLOAD DUP1 SWAP2 SUB SWAP1 LOG1 JUMP JUMPDEST PUSH0 CALLER SWAP1 POP SWAP1 JUMP JUMPDEST PUSH2 0x1B17 PUSH2 0xFB5 JUMP JUMPDEST PUSH2 0x1B4D JUMPI PUSH1 0x40 MLOAD PUSH32 0x8DFC202B00000000000000000000000000000000000000000000000000000000 DUP2 MSTORE PUSH1 0x4 ADD PUSH1 0x40 MLOAD DUP1 SWAP2 SUB SWAP1 REVERT JUMPDEST JUMP JUMPDEST PUSH0 DUP2 SWAP1 POP SWAP2 SWAP1 POP JUMP JUMPDEST PUSH2 0x1B61 DUP2 PUSH2 0x1B4F JUMP JUMPDEST DUP3 MSTORE POP POP JUMP JUMPDEST PUSH0 PUSH1 0x20 DUP3 ADD SWAP1 POP PUSH2 0x1B7A PUSH0 DUP4 ADD DUP5 PUSH2 0x1B58 JUMP JUMPDEST SWAP3 SWAP2 POP POP JUMP JUMPDEST PUSH0 DUP1 REVERT JUMPDEST PUSH2 0x1B8D DUP2 PUSH2 0x1B4F JUMP JUMPDEST DUP2 EQ PUSH2 0x1B97 JUMPI PUSH0 DUP1 REVERT JUMPDEST POP JUMP JUMPDEST PUSH0 DUP2 CALLDATALOAD SWAP1 POP PUSH2 0x1BA8 DUP2 PUSH2 0x1B84 JUMP JUMPDEST SWAP3 SWAP2 POP POP JUMP JUMPDEST PUSH0 PUSH1 0x20 DUP3 DUP5 SUB SLT ISZERO PUSH2 0x1BC3 JUMPI PUSH2 0x1BC2 PUSH2 0x1B80 JUMP JUMPDEST JUMPDEST PUSH0 PUSH2 0x1BD0 DUP5 DUP3 DUP6 ADD PUSH2 0x1B9A JUMP JUMPDEST SWAP2 POP POP SWAP3 SWAP2 POP POP JUMP JUMPDEST PUSH0 PUSH2 0xFFFF DUP3 AND SWAP1 POP SWAP2 SWAP1 POP JUMP JUMPDEST PUSH2 0x1BEF DUP2 PUSH2 0x1BD9 JUMP JUMPDEST DUP2 EQ PUSH2 0x1BF9 JUMPI PUSH0 DUP1 REVERT JUMPDEST POP JUMP JUMPDEST PUSH0 DUP2 CALLDATALOAD SWAP1 POP PUSH2 0x1C0A DUP2 PUSH2 0x1BE6 JUMP JUMPDEST SWAP3 SWAP2 POP POP JUMP JUMPDEST PUSH0 PUSH1 0x20 DUP3 DUP5 SUB SLT ISZERO PUSH2 0x1C25 JUMPI PUSH2 0x1C24 PUSH2 0x1B80 JUMP JUMPDEST JUMPDEST PUSH0 PUSH2 0x1C32 DUP5 DUP3 DUP6 ADD PUSH2 0x1BFC JUMP JUMPDEST SWAP2 POP POP SWAP3 SWAP2 POP POP JUMP JUMPDEST PUSH0 PUSH5 0xFFFFFFFFFF DUP3 AND SWAP1 POP SWAP2 SWAP1 POP JUMP JUMPDEST PUSH2 0x1C54 DUP2 PUSH2 0x1C3B JUMP JUMPDEST DUP3 MSTORE POP POP JUMP JUMPDEST PUSH2 0x1C63 DUP2 PUSH2 0x1BD9 JUMP JUMPDEST DUP3 MSTORE POP POP JUMP JUMPDEST PUSH0 PUSH1 0x40 DUP3 ADD SWAP1 POP PUSH2 0x1C7C PUSH0 DUP4 ADD DUP6 PUSH2 0x1C4B JUMP JUMPDEST PUSH2 0x1C89 PUSH1 0x20 DUP4 ADD DUP5 PUSH2 0x1C5A JUMP JUMPDEST SWAP4 SWAP3 POP POP POP JUMP JUMPDEST PUSH0 PUSH20 0xFFFFFFFFFFFFFFFFFFFFFFFFFFFFFFFFFFFFFFFF DUP3 AND SWAP1 POP SWAP2 SWAP1 POP JUMP JUMPDEST PUSH0 PUSH2 0x1CB9 DUP3 PUSH2 0x1C90 JUMP JUMPDEST SWAP1 POP SWAP2 SWAP1 POP JUMP JUMPDEST PUSH2 0x1CC9 DUP2 PUSH2 0x1CAF JUMP JUMPDEST DUP2 EQ PUSH2 0x1CD3 JUMPI PUSH0 DUP1 REVERT JUMPDEST POP JUMP JUMPDEST PUSH0 DUP2 CALLDATALOAD SWAP1 POP PUSH2 0x1CE4 DUP2 PUSH2 0x1CC0 JUMP JUMPDEST SWAP3 SWAP2 POP POP JUMP JUMPDEST PUSH0 DUP1 PUSH1 0x40 DUP4 DUP6 SUB SLT ISZERO PUSH2 0x1D00 JUMPI PUSH2 0x1CFF PUSH2 0x1B80 JUMP JUMPDEST JUMPDEST PUSH0 PUSH2 0x1D0D DUP6 DUP3 DUP7 ADD PUSH2 0x1CD6 JUMP JUMPDEST SWAP3 POP POP PUSH1 0x20 PUSH2 0x1D1E DUP6 DUP3 DUP7 ADD PUSH2 0x1B9A JUMP JUMPDEST SWAP2 POP POP SWAP3 POP SWAP3 SWAP1 POP JUMP JUMPDEST PUSH0 DUP2 ISZERO ISZERO SWAP1 POP SWAP2 SWAP1 POP JUMP JUMPDEST PUSH2 0x1D3C DUP2 PUSH2 0x1D28 JUMP JUMPDEST DUP3 MSTORE POP POP JUMP JUMPDEST PUSH0 PUSH1 0x20 DUP3 ADD SWAP1 POP PUSH2 0x1D55 PUSH0 DUP4 ADD DUP5 PUSH2 0x1D33 JUMP JUMPDEST SWAP3 SWAP2 POP POP JUMP JUMPDEST PUSH0 PUSH16 0xFFFFFFFFFFFFFFFFFFFFFFFFFFFFFFFF DUP3 AND SWAP1 POP SWAP2 SWAP1 POP JUMP JUMPDEST PUSH2 0x1D7F DUP2 PUSH2 0x1D5B JUMP JUMPDEST DUP3 MSTORE POP POP JUMP JUMPDEST PUSH0 PUSH1 0xC0 DUP3 ADD SWAP1 POP PUSH2 0x1D98 PUSH0 DUP4 ADD DUP10 PUSH2 0x1D76 JUMP JUMPDEST PUSH2 0x1DA5 PUSH1 0x20 DUP4 ADD DUP9 PUSH2 0x1D76 JUMP JUMPDEST PUSH2 0x1DB2 PUSH1 0x40 DUP4 ADD DUP8 PUSH2 0x1C4B JUMP JUMPDEST PUSH2 0x1DBF PUSH1 0x60 DUP4 ADD DUP7 PUSH2 0x1C4B JUMP JUMPDEST PUSH2 0x1DCC PUSH1 0x80 DUP4 ADD DUP6 PUSH2 0x1C5A JUMP JUMPDEST PUSH2 0x1DD9 PUSH1 0xA0 DUP4 ADD DUP5 PUSH2 0x1D33 JUMP JUMPDEST SWAP8 SWAP7 POP POP POP POP POP POP POP JUMP JUMPDEST PUSH2 0x1DED DUP2 PUSH2 0x1CAF JUMP JUMPDEST DUP3 MSTORE POP POP JUMP JUMPDEST PUSH0 PUSH1 0x20 DUP3 ADD SWAP1 POP PUSH2 0x1E06 PUSH0 DUP4 ADD DUP5 PUSH2 0x1DE4 JUMP JUMPDEST SWAP3 SWAP2 POP POP JUMP JUMPDEST PUSH0 PUSH2 0x1E16 DUP3 PUSH2 0x1C90 JUMP JUMPDEST SWAP1 POP SWAP2 SWAP1 POP JUMP JUMPDEST PUSH2 0x1E26 DUP2 PUSH2 0x1E0C JUMP JUMPDEST DUP2 EQ PUSH2 0x1E30 JUMPI PUSH0 DUP1 REVERT JUMPDEST POP JUMP JUMPDEST PUSH0 DUP2 CALLDATALOAD SWAP1 POP PUSH2 0x1E41 DUP2 PUSH2 0x1E1D JUMP JUMPDEST SWAP3 SWAP2 POP POP JUMP JUMPDEST PUSH0 DUP1 PUSH1 0x40 DUP4 DUP6 SUB SLT ISZERO PUSH2 0x1E5D JUMPI PUSH2 0x1E5C PUSH2 0x1B80 JUMP JUMPDEST JUMPDEST PUSH0 PUSH2 0x1E6A DUP6 DUP3 DUP7 ADD PUSH2 0x1E33 JUMP JUMPDEST SWAP3 POP POP PUSH1 0x20 PUSH2 0x1E7B DUP6 DUP3 DUP7 ADD PUSH2 0x1B9A JUMP JUMPDEST SWAP2 POP POP SWAP3 POP SWAP3 SWAP1 POP JUMP JUMPDEST PUSH0 PUSH1 0x60 DUP3 ADD SWAP1 POP PUSH2 0x1E98 PUSH0 DUP4 ADD DUP7 PUSH2 0x1B58 JUMP JUMPDEST PUSH2 0x1EA5 PUSH1 0x20 DUP4 ADD DUP6 PUSH2 0x1B58 JUMP JUMPDEST PUSH2 0x1EB2 PUSH1 0x40 DUP4 ADD DUP5 PUSH2 0x1D33 JUMP JUMPDEST SWAP5 SWAP4 POP POP POP POP JUMP JUMPDEST PUSH0 PUSH1 0x20 DUP3 DUP5 SUB SLT ISZERO PUSH2 0x1ECF JUMPI PUSH2 0x1ECE PUSH2 0x1B80 JUMP JUMPDEST JUMPDEST PUSH0 PUSH2 0x1EDC DUP5 DUP3 DUP6 ADD PUSH2 0x1CD6 JUMP JUMPDEST SWAP2 POP POP SWAP3 SWAP2 POP POP JUMP JUMPDEST PUSH0 DUP2 MLOAD SWAP1 POP SWAP2 SWAP1 POP JUMP JUMPDEST PUSH0 DUP3 DUP3 MSTORE PUSH1 0x20 DUP3 ADD SWAP1 POP SWAP3 SWAP2 POP POP JUMP JUMPDEST PUSH0 DUP2 SWAP1 POP PUSH1 0x20 DUP3 ADD SWAP1 POP SWAP2 SWAP1 POP JUMP JUMPDEST PUSH2 0x1F17 DUP2 PUSH2 0x1D5B JUMP JUMPDEST DUP3 MSTORE POP POP JUMP JUMPDEST PUSH2 0x1F26 DUP2 PUSH2 0x1C3B JUMP JUMPDEST DUP3 MSTORE POP POP JUMP JUMPDEST PUSH2 0x1F35 DUP2 PUSH2 0x1BD9 JUMP JUMPDEST DUP3 MSTORE POP POP JUMP JUMPDEST PUSH2 0x1F44 DUP2 PUSH2 0x1D28 JUMP JUMPDEST DUP3 MSTORE POP POP JUMP JUMPDEST PUSH1 0xC0 DUP3 ADD PUSH0 DUP3 ADD MLOAD PUSH2 0x1F5E PUSH0 DUP6 ADD DUP3 PUSH2 0x1F0E JUMP JUMPDEST POP PUSH1 0x20 DUP3 ADD MLOAD PUSH2 0x1F71 PUSH1 0x20 DUP6 ADD DUP3 PUSH2 0x1F0E JUMP JUMPDEST POP PUSH1 0x40 DUP3 ADD MLOAD PUSH2 0x1F84 PUSH1 0x40 DUP6 ADD DUP3 PUSH2 0x1F1D JUMP JUMPDEST POP PUSH1 0x60 DUP3 ADD MLOAD PUSH2 0x1F97 PUSH1 0x60 DUP6 ADD DUP3 PUSH2 0x1F1D JUMP JUMPDEST POP PUSH1 0x80 DUP3 ADD MLOAD PUSH2 0x1FAA PUSH1 0x80 DUP6 ADD DUP3 PUSH2 0x1F2C JUMP JUMPDEST POP PUSH1 0xA0 DUP3 ADD MLOAD PUSH2 0x1FBD PUSH1 0xA0 DUP6 ADD DUP3 PUSH2 0x1F3B JUMP JUMPDEST POP POP POP POP JUMP JUMPDEST PUSH0 PUSH2 0x1FCE DUP4 DUP4 PUSH2 0x1F4A JUMP JUMPDEST PUSH1 0xC0 DUP4 ADD SWAP1 POP SWAP3 SWAP2 POP POP JUMP JUMPDEST PUSH0 PUSH1 0x20 DUP3 ADD SWAP1 POP SWAP2 SWAP1 POP JUMP JUMPDEST PUSH0 PUSH2 0x1FF0 DUP3 PUSH2 0x1EE5 JUMP JUMPDEST PUSH2 0x1FFA DUP2 DUP6 PUSH2 0x1EEF JUMP JUMPDEST SWAP4 POP PUSH2 0x2005 DUP4 PUSH2 0x1EFF JUMP JUMPDEST DUP1 PUSH0 JUMPDEST DUP4 DUP2 LT ISZERO PUSH2 0x2035 JUMPI DUP2 MLOAD PUSH2 0x201C DUP9 DUP3 PUSH2 0x1FC3 JUMP JUMPDEST SWAP8 POP PUSH2 0x2027 DUP4 PUSH2 0x1FDA JUMP JUMPDEST SWAP3 POP POP PUSH1 0x1 DUP2 ADD SWAP1 POP PUSH2 0x2008 JUMP JUMPDEST POP DUP6 SWAP4 POP POP POP POP SWAP3 SWAP2 POP POP JUMP JUMPDEST PUSH0 PUSH1 0x20 DUP3 ADD SWAP1 POP DUP2 DUP2 SUB PUSH0 DUP4 ADD MSTORE PUSH2 0x205A DUP2 DUP5 PUSH2 0x1FE6 JUMP JUMPDEST SWAP1 POP SWAP3 SWAP2 POP POP JUMP JUMPDEST PUSH32 0x4E487B7100000000000000000000000000000000000000000000000000000000 PUSH0 MSTORE PUSH1 0x11 PUSH1 0x4 MSTORE PUSH1 0x24 PUSH0 REVERT JUMPDEST PUSH0 PUSH2 0x2099 DUP3 PUSH2 0x1B4F JUMP JUMPDEST SWAP2 POP PUSH2 0x20A4 DUP4 PUSH2 0x1B4F JUMP JUMPDEST SWAP3 POP DUP3 DUP3 ADD SWAP1 POP DUP1 DUP3 GT ISZERO PUSH2 0x20BC JUMPI PUSH2 0x20BB PUSH2 0x2062 JUMP JUMPDEST JUMPDEST SWAP3 SWAP2 POP POP JUMP JUMPDEST PUSH0 DUP2 SWAP1 POP SWAP3 SWAP2 POP POP JUMP JUMPDEST POP JUMP JUMPDEST PUSH0 PUSH2 0x20DA PUSH0 DUP4 PUSH2 0x20C2 JUMP JUMPDEST SWAP2 POP PUSH2 0x20E5 DUP3 PUSH2 0x20CC JUMP JUMPDEST PUSH0 DUP3 ADD SWAP1 POP SWAP2 SWAP1 POP JUMP JUMPDEST PUSH0 PUSH2 0x20F9 DUP3 PUSH2 0x20CF JUMP JUMPDEST SWAP2 POP DUP2 SWAP1 POP SWAP2 SWAP1 POP JUMP JUMPDEST PUSH0 DUP3 DUP3 MSTORE PUSH1 0x20 DUP3 ADD SWAP1 POP SWAP3 SWAP2 POP POP JUMP JUMPDEST PUSH32 0x7061796F7574206661696C656400000000000000000000000000000000000000 PUSH0 DUP3 ADD MSTORE POP JUMP JUMPDEST PUSH0 PUSH2 0x2147 PUSH1 0xD DUP4 PUSH2 0x2103 JUMP JUMPDEST SWAP2 POP PUSH2 0x2152 DUP3 PUSH2 0x2113 JUMP JUMPDEST PUSH1 0x20 DUP3 ADD SWAP1 POP SWAP2 SWAP1 POP JUMP JUMPDEST PUSH0 PUSH1 0x20 DUP3 ADD SWAP1 POP DUP2 DUP2 SUB PUSH0 DUP4 ADD MSTORE PUSH2 0x2174 DUP2 PUSH2 0x213B JUMP JUMPDEST SWAP1 POP SWAP2 SWAP1 POP JUMP JUMPDEST PUSH0 PUSH1 0x40 DUP3 ADD SWAP1 POP PUSH2 0x218E PUSH0 DUP4 ADD DUP6 PUSH2 0x1B58 JUMP JUMPDEST PUSH2 0x219B PUSH1 0x20 DUP4 ADD DUP5 PUSH2 0x1B58 JUMP JUMPDEST SWAP4 SWAP3 POP POP POP JUMP JUMPDEST PUSH0 PUSH2 0x21AC DUP3 PUSH2 0x1B4F JUMP JUMPDEST SWAP2 POP PUSH2 0x21B7 DUP4 PUSH2 0x1B4F JUMP JUMPDEST SWAP3 POP DUP3 DUP3 MUL PUSH2 0x21C5 DUP2 PUSH2 0x1B4F JUMP JUMPDEST SWAP2 POP DUP3 DUP3 DIV DUP5 EQ DUP4 ISZERO OR PUSH2 0x21DC JUMPI PUSH2 0x21DB PUSH2 0x2062 JUMP JUMPDEST JUMPDEST POP SWAP3 SWAP2 POP POP JUMP JUMPDEST PUSH32 0x4E487B7100000000000000000000000000000000000000000000000000000000 PUSH0 MSTORE PUSH1 0x12 PUSH1 0x4 MSTORE PUSH1 0x24 PUSH0 REVERT JUMPDEST PUSH0 PUSH2 0x221A DUP3 PUSH2 0x1B4F JUMP JUMPDEST SWAP2 POP PUSH2 0x2225 DUP4 PUSH2 0x1B4F JUMP JUMPDEST SWAP3 POP DUP3 PUSH2 0x2235 JUMPI PUSH2 0x2234 PUSH2 0x21E3 JUMP JUMPDEST JUMPDEST DUP3 DUP3 DIV SWAP1 POP SWAP3 SWAP2 POP POP JUMP JUMPDEST PUSH0 PUSH2 0x224A DUP3 PUSH2 0x1B4F JUMP JUMPDEST SWAP2 POP PUSH2 0x2255 DUP4 PUSH2 0x1B4F JUMP JUMPDEST SWAP3 POP DUP3 DUP3 SUB SWAP1 POP DUP2 DUP2 GT ISZERO PUSH2 0x226D JUMPI PUSH2 0x226C PUSH2 0x2062 JUMP JUMPDEST JUMPDEST SWAP3 SWAP2 POP POP JUMP JUMPDEST PUSH0 PUSH2 0x227D DUP3 PUSH2 0x1C3B JUMP JUMPDEST SWAP2 POP PUSH2 0x2288 DUP4 PUSH2 0x1C3B JUMP JUMPDEST SWAP3 POP DUP3 DUP3 ADD SWAP1 POP PUSH5 0xFFFFFFFFFF DUP2 GT ISZERO PUSH2 0x22A5 JUMPI PUSH2 0x22A4 PUSH2 0x2062 JUMP JUMPDEST JUMPDEST SWAP3 SWAP2 POP POP JUMP JUMPDEST PUSH0 PUSH1 0x40 DUP3 ADD SWAP1 POP PUSH2 0x22BE PUSH0 DUP4 ADD DUP6 PUSH2 0x1B58 JUMP JUMPDEST PUSH2 0x22CB PUSH1 0x20 DUP4 ADD DUP5 PUSH2 0x1C4B JUMP JUMPDEST SWAP4 SWAP3 POP POP POP JUMP JUMPDEST PUSH32 0x4E487B7100000000000000000000000000000000000000000000000000000000 PUSH0 MSTORE PUSH1 0x32 PUSH1 0x4 MSTORE PUSH1 0x24 PUSH0 REVERT JUMPDEST PUSH32 0x726566756E64206661696C656400000000000000000000000000000000000000 PUSH0 DUP3 ADD MSTORE POP JUMP JUMPDEST PUSH0 PUSH2 0x2333 PUSH1 0xD DUP4 PUSH2 0x2103 JUMP JUMPDEST SWAP2 POP PUSH2 0x233E DUP3 PUSH2 0x22FF JUMP JUMPDEST PUSH1 0x20 DUP3 ADD SWAP1 POP SWAP2 SWAP1 POP JUMP JUMPDEST PUSH0 PUSH1 0x20 DUP3 ADD SWAP1 POP DUP2 DUP2 SUB PUSH0 DUP4 ADD MSTORE PUSH2 0x2360 DUP2 PUSH2 0x2327 JUMP JUMPDEST SWAP1 POP SWAP2 SWAP1 POP JUMP JUMPDEST PUSH32 0x7472616E73666572206661696C65640000000000000000000000000000000000 PUSH0 DUP3 ADD MSTORE POP JUMP JUMPDEST PUSH0 PUSH2 0x239B PUSH1 0xF DUP4 PUSH2 0x2103 JUMP JUMPDEST SWAP2 POP PUSH2 0x23A6 DUP3 PUSH2 0x2367 JUMP JUMPDEST PUSH1 0x20 DUP3 ADD SWAP1 POP SWAP2 SWAP1 POP JUMP JUMPDEST PUSH0 PUSH1 0x20 DUP3 ADD SWAP1 POP DUP2 DUP2 SUB PUSH0 DUP4 ADD MSTORE PUSH2 0x23C8 DUP2 PUSH2 0x238F JUMP JUMPDEST SWAP1 POP SWAP2 SWAP1 POP JUMP INVALID LOG2 PUSH5 0x6970667358 0x22 SLT KECCAK256 PUSH19 0xEAC18B6BFAF0EFC3570BE6111192F3622E1143 DUP12 0xDF DUP5 PC DUP15 SWAP1 BLOCKHASH SWAP2 0xEC 0x2B DUP10 BASEFEE PUSH5 0x736F6C6343 STOP ADDMOD BYTE STOP CALLER "
		},
		"gasEstimates": {
			"creation": {
				"codeDepositCost": "1844200",
				"executionCost": "infinite",
				"totalCost": "infinite"
			},
			"external": {
				"adminWithdrawAny(address,uint256)": "infinite",
				"emergencyWithdraw(uint256)": "infinite",
				"fundRewards()": "infinite",
				"owner()": "2604",
				"pause()": "infinite",
				"paused()": "2635",
				"pendingPayout(address,uint256)": "infinite",
				"planInfo(uint16)": "infinite",
				"plansCount()": "421",
				"positionsOf(address)": "infinite",
				"renounceOwnership()": "infinite",
				"rewardsPool()": "4601",
				"stake(uint16)": "infinite",
				"timeToUnlock(address,uint256)": "infinite",
				"totalBonusLiability()": "2469",
				"totalPrincipalLocked()": "2492",
				"transferOwnership(address)": "infinite",
				"unpause()": "infinite",
				"userPositions(address,uint256)": "infinite",
				"withdraw(uint256)": "infinite"
			},
			"internal": {
				"_getPlan(uint16)": "infinite",
				"_position(address,uint256)": "infinite"
			}
		},
		"methodIdentifiers": {
			"adminWithdrawAny(address,uint256)": "945d1a5c",
			"emergencyWithdraw(uint256)": "5312ea8e",
			"fundRewards()": "ff18bf0b",
			"owner()": "8da5cb5b",
			"pause()": "8456cb59",
			"paused()": "5c975abb",
			"pendingPayout(address,uint256)": "da709204",
			"planInfo(uint16)": "31d430b7",
			"plansCount()": "591c613c",
			"positionsOf(address)": "f867d46b",
			"renounceOwnership()": "715018a6",
			"rewardsPool()": "0359fea9",
			"stake(uint16)": "2f57ee41",
			"timeToUnlock(address,uint256)": "3a0d2897",
			"totalBonusLiability()": "e44df161",
			"totalPrincipalLocked()": "58b24f1e",
			"transferOwnership(address)": "f2fde38b",
			"unpause()": "3f4ba83a",
			"userPositions(address,uint256)": "5e1b4d99",
			"withdraw(uint256)": "2e1a7d4d"
		}
	},
	"abi": [
		{
			"inputs": [],
			"stateMutability": "nonpayable",
			"type": "constructor"
		},
		{
			"inputs": [],
			"name": "AlreadyMatured",
			"type": "error"
		},
		{
			"inputs": [],
			"name": "AlreadyWithdrawn",
			"type": "error"
		},
		{
			"inputs": [],
			"name": "AmountZero",
			"type": "error"
		},
		{
			"inputs": [],
			"name": "BadPlan",
			"type": "error"
		},
		{
			"inputs": [],
			"name": "BadPositionId",
			"type": "error"
		},
		{
			"inputs": [],
			"name": "EnforcedPause",
			"type": "error"
		},
		{
			"inputs": [],
			"name": "ExpectedPause",
			"type": "error"
		},
		{
			"inputs": [
				{
					"internalType": "uint256",
					"name": "pool",
					"type": "uint256"
				},
				{
					"internalType": "uint256",
					"name": "required",
					"type": "uint256"
				}
			],
			"name": "InsufficientRewardCapacity",
			"type": "error"
		},
		{
			"inputs": [],
			"name": "InsufficientRewards",
			"type": "error"
		},
		{
			"inputs": [],
			"name": "NoValue",
			"type": "error"
		},
		{
			"inputs": [],
			"name": "NotMatured",
			"type": "error"
		},
		{
			"inputs": [
				{
					"internalType": "address",
					"name": "owner",
					"type": "address"
				}
			],
			"name": "OwnableInvalidOwner",
			"type": "error"
		},
		{
			"inputs": [
				{
					"internalType": "address",
					"name": "account",
					"type": "address"
				}
			],
			"name": "OwnableUnauthorizedAccount",
			"type": "error"
		},
		{
			"inputs": [],
			"name": "ReentrancyGuardReentrantCall",
			"type": "error"
		},
		{
			"inputs": [],
			"name": "ToZeroAddress",
			"type": "error"
		},
		{
			"anonymous": false,
			"inputs": [
				{
					"indexed": true,
					"internalType": "address",
					"name": "to",
					"type": "address"
				},
				{
					"indexed": false,
					"internalType": "uint256",
					"name": "amount",
					"type": "uint256"
				}
			],
			"name": "AdminWithdraw",
			"type": "event"
		},
		{
			"anonymous": false,
			"inputs": [
				{
					"indexed": true,
					"internalType": "address",
					"name": "user",
					"type": "address"
				},
				{
					"indexed": true,
					"internalType": "uint256",
					"name": "positionId",
					"type": "uint256"
				},
				{
					"indexed": false,
					"internalType": "uint256",
					"name": "principal",
					"type": "uint256"
				}
			],
			"name": "EmergencyWithdrawn",
			"type": "event"
		},
		{
			"anonymous": false,
			"inputs": [
				{
					"indexed": true,
					"internalType": "address",
					"name": "previousOwner",
					"type": "address"
				},
				{
					"indexed": true,
					"internalType": "address",
					"name": "newOwner",
					"type": "address"
				}
			],
			"name": "OwnershipTransferred",
			"type": "event"
		},
		{
			"anonymous": false,
			"inputs": [
				{
					"indexed": false,
					"internalType": "address",
					"name": "account",
					"type": "address"
				}
			],
			"name": "Paused",
			"type": "event"
		},
		{
			"anonymous": false,
			"inputs": [
				{
					"indexed": true,
					"internalType": "address",
					"name": "from",
					"type": "address"
				},
				{
					"indexed": false,
					"internalType": "uint256",
					"name": "amount",
					"type": "uint256"
				}
			],
			"name": "RewardsFunded",
			"type": "event"
		},
		{
			"anonymous": false,
			"inputs": [
				{
					"indexed": true,
					"internalType": "address",
					"name": "user",
					"type": "address"
				},
				{
					"indexed": true,
					"internalType": "uint16",
					"name": "planId",
					"type": "uint16"
				},
				{
					"indexed": false,
					"internalType": "uint256",
					"name": "amount",
					"type": "uint256"
				},
				{
					"indexed": true,
					"internalType": "uint256",
					"name": "positionId",
					"type": "uint256"
				},
				{
					"indexed": false,
					"internalType": "uint40",
					"name": "unlockAt",
					"type": "uint40"
				}
			],
			"name": "Staked",
			"type": "event"
		},
		{
			"anonymous": false,
			"inputs": [
				{
					"indexed": false,
					"internalType": "address",
					"name": "account",
					"type": "address"
				}
			],
			"name": "Unpaused",
			"type": "event"
		},
		{
			"anonymous": false,
			"inputs": [
				{
					"indexed": true,
					"internalType": "address",
					"name": "user",
					"type": "address"
				},
				{
					"indexed": true,
					"internalType": "uint256",
					"name": "positionId",
					"type": "uint256"
				},
				{
					"indexed": false,
					"internalType": "uint256",
					"name": "principal",
					"type": "uint256"
				},
				{
					"indexed": false,
					"internalType": "uint256",
					"name": "bonus",
					"type": "uint256"
				}
			],
			"name": "Withdrawn",
			"type": "event"
		},
		{
			"inputs": [
				{
					"internalType": "address payable",
					"name": "to",
					"type": "address"
				},
				{
					"internalType": "uint256",
					"name": "amount",
					"type": "uint256"
				}
			],
			"name": "adminWithdrawAny",
			"outputs": [],
			"stateMutability": "nonpayable",
			"type": "function"
		},
		{
			"inputs": [
				{
					"internalType": "uint256",
					"name": "positionId",
					"type": "uint256"
				}
			],
			"name": "emergencyWithdraw",
			"outputs": [],
			"stateMutability": "nonpayable",
			"type": "function"
		},
		{
			"inputs": [],
			"name": "fundRewards",
			"outputs": [],
			"stateMutability": "payable",
			"type": "function"
		},
		{
			"inputs": [],
			"name": "owner",
			"outputs": [
				{
					"internalType": "address",
					"name": "",
					"type": "address"
				}
			],
			"stateMutability": "view",
			"type": "function"
		},
		{
			"inputs": [],
			"name": "pause",
			"outputs": [],
			"stateMutability": "nonpayable",
			"type": "function"
		},
		{
			"inputs": [],
			"name": "paused",
			"outputs": [
				{
					"internalType": "bool",
					"name": "",
					"type": "bool"
				}
			],
			"stateMutability": "view",
			"type": "function"
		},
		{
			"inputs": [
				{
					"internalType": "address",
					"name": "user",
					"type": "address"
				},
				{
					"internalType": "uint256",
					"name": "positionId",
					"type": "uint256"
				}
			],
			"name": "pendingPayout",
			"outputs": [
				{
					"internalType": "uint256",
					"name": "principal",
					"type": "uint256"
				},
				{
					"internalType": "uint256",
					"name": "bonus",
					"type": "uint256"
				},
				{
					"internalType": "bool",
					"name": "matured",
					"type": "bool"
				}
			],
			"stateMutability": "view",
			"type": "function"
		},
		{
			"inputs": [
				{
					"internalType": "uint16",
					"name": "planId",
					"type": "uint16"
				}
			],
			"name": "planInfo",
			"outputs": [
				{
					"internalType": "uint40",
					"name": "duration",
					"type": "uint40"
				},
				{
					"internalType": "uint16",
					"name": "bonusBps",
					"type": "uint16"
				}
			],
			"stateMutability": "pure",
			"type": "function"
		},
		{
			"inputs": [],
			"name": "plansCount",
			"outputs": [
				{
					"internalType": "uint256",
					"name": "",
					"type": "uint256"
				}
			],
			"stateMutability": "pure",
			"type": "function"
		},
		{
			"inputs": [
				{
					"internalType": "address",
					"name": "user",
					"type": "address"
				}
			],
			"name": "positionsOf",
			"outputs": [
				{
					"components": [
						{
							"internalType": "uint128",
							"name": "amount",
							"type": "uint128"
						},
						{
							"internalType": "uint128",
							"name": "bonusWei",
							"type": "uint128"
						},
						{
							"internalType": "uint40",
							"name": "start",
							"type": "uint40"
						},
						{
							"internalType": "uint40",
							"name": "unlock",
							"type": "uint40"
						},
						{
							"internalType": "uint16",
							"name": "planId",
							"type": "uint16"
						},
						{
							"internalType": "bool",
							"name": "withdrawn",
							"type": "bool"
						}
					],
					"internalType": "struct EthFixedTermStaking.Position[]",
					"name": "",
					"type": "tuple[]"
				}
			],
			"stateMutability": "view",
			"type": "function"
		},
		{
			"inputs": [],
			"name": "renounceOwnership",
			"outputs": [],
			"stateMutability": "nonpayable",
			"type": "function"
		},
		{
			"inputs": [],
			"name": "rewardsPool",
			"outputs": [
				{
					"internalType": "uint256",
					"name": "",
					"type": "uint256"
				}
			],
			"stateMutability": "view",
			"type": "function"
		},
		{
			"inputs": [
				{
					"internalType": "uint16",
					"name": "planId",
					"type": "uint16"
				}
			],
			"name": "stake",
			"outputs": [],
			"stateMutability": "payable",
			"type": "function"
		},
		{
			"inputs": [
				{
					"internalType": "address",
					"name": "user",
					"type": "address"
				},
				{
					"internalType": "uint256",
					"name": "positionId",
					"type": "uint256"
				}
			],
			"name": "timeToUnlock",
			"outputs": [
				{
					"internalType": "uint256",
					"name": "",
					"type": "uint256"
				}
			],
			"stateMutability": "view",
			"type": "function"
		},
		{
			"inputs": [],
			"name": "totalBonusLiability",
			"outputs": [
				{
					"internalType": "uint256",
					"name": "",
					"type": "uint256"
				}
			],
			"stateMutability": "view",
			"type": "function"
		},
		{
			"inputs": [],
			"name": "totalPrincipalLocked",
			"outputs": [
				{
					"internalType": "uint256",
					"name": "",
					"type": "uint256"
				}
			],
			"stateMutability": "view",
			"type": "function"
		},
		{
			"inputs": [
				{
					"internalType": "address",
					"name": "newOwner",
					"type": "address"
				}
			],
			"name": "transferOwnership",
			"outputs": [],
			"stateMutability": "nonpayable",
			"type": "function"
		},
		{
			"inputs": [],
			"name": "unpause",
			"outputs": [],
			"stateMutability": "nonpayable",
			"type": "function"
		},
		{
			"inputs": [
				{
					"internalType": "address",
					"name": "",
					"type": "address"
				},
				{
					"internalType": "uint256",
					"name": "",
					"type": "uint256"
				}
			],
			"name": "userPositions",
			"outputs": [
				{
					"internalType": "uint128",
					"name": "amount",
					"type": "uint128"
				},
				{
					"internalType": "uint128",
					"name": "bonusWei",
					"type": "uint128"
				},
				{
					"internalType": "uint40",
					"name": "start",
					"type": "uint40"
				},
				{
					"internalType": "uint40",
					"name": "unlock",
					"type": "uint40"
				},
				{
					"internalType": "uint16",
					"name": "planId",
					"type": "uint16"
				},
				{
					"internalType": "bool",
					"name": "withdrawn",
					"type": "bool"
				}
			],
			"stateMutability": "view",
			"type": "function"
		},
		{
			"inputs": [
				{
					"internalType": "uint256",
					"name": "positionId",
					"type": "uint256"
				}
			],
			"name": "withdraw",
			"outputs": [],
			"stateMutability": "nonpayable",
			"type": "function"
		},
		{
			"stateMutability": "payable",
			"type": "receive"
		}
	]
}